{
  "contractName": "DapDogoNFT",
  "abi": [
    {
      "inputs": [],
      "stateMutability": "payable",
      "type": "constructor",
      "payable": true
    },
    {
      "anonymous": false,
      "inputs": [
        {
          "indexed": true,
          "internalType": "address",
          "name": "owner",
          "type": "address"
        },
        {
          "indexed": true,
          "internalType": "address",
          "name": "approved",
          "type": "address"
        },
        {
          "indexed": true,
          "internalType": "uint256",
          "name": "tokenId",
          "type": "uint256"
        }
      ],
      "name": "Approval",
      "type": "event"
    },
    {
      "anonymous": false,
      "inputs": [
        {
          "indexed": true,
          "internalType": "address",
          "name": "owner",
          "type": "address"
        },
        {
          "indexed": true,
          "internalType": "address",
          "name": "operator",
          "type": "address"
        },
        {
          "indexed": false,
          "internalType": "bool",
          "name": "approved",
          "type": "bool"
        }
      ],
      "name": "ApprovalForAll",
      "type": "event"
    },
    {
      "anonymous": false,
      "inputs": [
        {
          "indexed": true,
          "internalType": "address",
          "name": "previousOwner",
          "type": "address"
        },
        {
          "indexed": true,
          "internalType": "address",
          "name": "newOwner",
          "type": "address"
        }
      ],
      "name": "OwnershipTransferred",
      "type": "event"
    },
    {
      "anonymous": false,
      "inputs": [
        {
          "indexed": true,
          "internalType": "address",
          "name": "from",
          "type": "address"
        },
        {
          "indexed": true,
          "internalType": "address",
          "name": "to",
          "type": "address"
        },
        {
          "indexed": true,
          "internalType": "uint256",
          "name": "tokenId",
          "type": "uint256"
        }
      ],
      "name": "Transfer",
      "type": "event"
    },
    {
      "inputs": [
        {
          "internalType": "address",
          "name": "to",
          "type": "address"
        },
        {
          "internalType": "uint256",
          "name": "tokenId",
          "type": "uint256"
        }
      ],
      "name": "approve",
      "outputs": [],
      "stateMutability": "nonpayable",
      "type": "function"
    },
    {
      "inputs": [
        {
          "internalType": "address",
          "name": "owner",
          "type": "address"
        }
      ],
      "name": "balanceOf",
      "outputs": [
        {
          "internalType": "uint256",
          "name": "",
          "type": "uint256"
        }
      ],
      "stateMutability": "view",
      "type": "function",
      "constant": true
    },
    {
      "inputs": [
        {
          "internalType": "uint256",
          "name": "tokenId",
          "type": "uint256"
        }
      ],
      "name": "getApproved",
      "outputs": [
        {
          "internalType": "address",
          "name": "",
          "type": "address"
        }
      ],
      "stateMutability": "view",
      "type": "function",
      "constant": true
    },
    {
      "inputs": [
        {
          "internalType": "address",
          "name": "owner",
          "type": "address"
        },
        {
          "internalType": "address",
          "name": "operator",
          "type": "address"
        }
      ],
      "name": "isApprovedForAll",
      "outputs": [
        {
          "internalType": "bool",
          "name": "",
          "type": "bool"
        }
      ],
      "stateMutability": "view",
      "type": "function",
      "constant": true
    },
    {
      "inputs": [],
      "name": "isPublicMintEnabled",
      "outputs": [
        {
          "internalType": "bool",
          "name": "",
          "type": "bool"
        }
      ],
      "stateMutability": "view",
      "type": "function",
      "constant": true
    },
    {
      "inputs": [],
      "name": "maxPerWallet",
      "outputs": [
        {
          "internalType": "uint256",
          "name": "",
          "type": "uint256"
        }
      ],
      "stateMutability": "view",
      "type": "function",
      "constant": true
    },
    {
      "inputs": [],
      "name": "maxSupply",
      "outputs": [
        {
          "internalType": "uint256",
          "name": "",
          "type": "uint256"
        }
      ],
      "stateMutability": "view",
      "type": "function",
      "constant": true
    },
    {
      "inputs": [],
      "name": "mintPrice",
      "outputs": [
        {
          "internalType": "uint256",
          "name": "",
          "type": "uint256"
        }
      ],
      "stateMutability": "view",
      "type": "function",
      "constant": true
    },
    {
      "inputs": [],
      "name": "name",
      "outputs": [
        {
          "internalType": "string",
          "name": "",
          "type": "string"
        }
      ],
      "stateMutability": "view",
      "type": "function",
      "constant": true
    },
    {
      "inputs": [],
      "name": "owner",
      "outputs": [
        {
          "internalType": "address",
          "name": "",
          "type": "address"
        }
      ],
      "stateMutability": "view",
      "type": "function",
      "constant": true
    },
    {
      "inputs": [
        {
          "internalType": "uint256",
          "name": "tokenId",
          "type": "uint256"
        }
      ],
      "name": "ownerOf",
      "outputs": [
        {
          "internalType": "address",
          "name": "",
          "type": "address"
        }
      ],
      "stateMutability": "view",
      "type": "function",
      "constant": true
    },
    {
      "inputs": [],
      "name": "renounceOwnership",
      "outputs": [],
      "stateMutability": "nonpayable",
      "type": "function"
    },
    {
      "inputs": [
        {
          "internalType": "address",
          "name": "from",
          "type": "address"
        },
        {
          "internalType": "address",
          "name": "to",
          "type": "address"
        },
        {
          "internalType": "uint256",
          "name": "tokenId",
          "type": "uint256"
        }
      ],
      "name": "safeTransferFrom",
      "outputs": [],
      "stateMutability": "nonpayable",
      "type": "function"
    },
    {
      "inputs": [
        {
          "internalType": "address",
          "name": "from",
          "type": "address"
        },
        {
          "internalType": "address",
          "name": "to",
          "type": "address"
        },
        {
          "internalType": "uint256",
          "name": "tokenId",
          "type": "uint256"
        },
        {
          "internalType": "bytes",
          "name": "_data",
          "type": "bytes"
        }
      ],
      "name": "safeTransferFrom",
      "outputs": [],
      "stateMutability": "nonpayable",
      "type": "function"
    },
    {
      "inputs": [
        {
          "internalType": "address",
          "name": "operator",
          "type": "address"
        },
        {
          "internalType": "bool",
          "name": "approved",
          "type": "bool"
        }
      ],
      "name": "setApprovalForAll",
      "outputs": [],
      "stateMutability": "nonpayable",
      "type": "function"
    },
    {
      "inputs": [
        {
          "internalType": "bytes4",
          "name": "interfaceId",
          "type": "bytes4"
        }
      ],
      "name": "supportsInterface",
      "outputs": [
        {
          "internalType": "bool",
          "name": "",
          "type": "bool"
        }
      ],
      "stateMutability": "view",
      "type": "function",
      "constant": true
    },
    {
      "inputs": [],
      "name": "symbol",
      "outputs": [
        {
          "internalType": "string",
          "name": "",
          "type": "string"
        }
      ],
      "stateMutability": "view",
      "type": "function",
      "constant": true
    },
    {
      "inputs": [],
      "name": "totalSupply",
      "outputs": [
        {
          "internalType": "uint256",
          "name": "",
          "type": "uint256"
        }
      ],
      "stateMutability": "view",
      "type": "function",
      "constant": true
    },
    {
      "inputs": [
        {
          "internalType": "address",
          "name": "from",
          "type": "address"
        },
        {
          "internalType": "address",
          "name": "to",
          "type": "address"
        },
        {
          "internalType": "uint256",
          "name": "tokenId",
          "type": "uint256"
        }
      ],
      "name": "transferFrom",
      "outputs": [],
      "stateMutability": "nonpayable",
      "type": "function"
    },
    {
      "inputs": [
        {
          "internalType": "address",
          "name": "newOwner",
          "type": "address"
        }
      ],
      "name": "transferOwnership",
      "outputs": [],
      "stateMutability": "nonpayable",
      "type": "function"
    },
    {
      "inputs": [
        {
          "internalType": "address",
          "name": "",
          "type": "address"
        }
      ],
      "name": "walletMint",
      "outputs": [
        {
          "internalType": "uint256",
          "name": "",
          "type": "uint256"
        }
      ],
      "stateMutability": "view",
      "type": "function",
      "constant": true
    },
    {
      "inputs": [
        {
          "internalType": "bool",
          "name": "_isPublicMintEnabled",
          "type": "bool"
        }
      ],
      "name": "setPublicMintEnabled",
      "outputs": [],
      "stateMutability": "nonpayable",
      "type": "function"
    },
    {
      "inputs": [
        {
          "internalType": "string",
          "name": "_baseURI",
          "type": "string"
        }
      ],
      "name": "setBaseTokenUri",
      "outputs": [],
      "stateMutability": "nonpayable",
      "type": "function"
    },
    {
      "inputs": [
        {
          "internalType": "uint256",
          "name": "_tokenId",
          "type": "uint256"
        }
      ],
      "name": "tokenURI",
      "outputs": [
        {
          "internalType": "string",
          "name": "",
          "type": "string"
        }
      ],
      "stateMutability": "view",
      "type": "function",
      "constant": true
    },
    {
      "inputs": [],
      "name": "withdraw",
      "outputs": [],
      "stateMutability": "nonpayable",
      "type": "function"
    },
    {
      "inputs": [
        {
          "internalType": "uint256",
          "name": "_quantity",
          "type": "uint256"
        }
      ],
      "name": "mint",
      "outputs": [],
      "stateMutability": "payable",
      "type": "function",
      "payable": true
    }
  ],
  "bytecode": "0x60806040526040518060400160405280600781526020017f446170446f676f000000000000000000000000000000000000000000000000008152506040518060400160405280600481526020017f4441444f00000000000000000000000000000000000000000000000000000000815250816000908051906020019062000088929190620001c0565b508060019080519060200190620000a1929190620001c0565b505050620000c4620000b8620000f260201b60201c565b620000fa60201b60201c565b67016345785d8a000060078190555060006008819055506103e86009819055506005600a81905550620002d4565b600033905090565b6000600660009054906101000a900473ffffffffffffffffffffffffffffffffffffffff16905081600660006101000a81548173ffffffffffffffffffffffffffffffffffffffff021916908373ffffffffffffffffffffffffffffffffffffffff1602179055508173ffffffffffffffffffffffffffffffffffffffff168173ffffffffffffffffffffffffffffffffffffffff167f8be0079c531659141344cd1fd0a4f28419497f9722a3daafe3b4186f6b6457e060405160405180910390a35050565b828054620001ce906200029f565b90600052602060002090601f016020900481019282620001f257600085556200023e565b82601f106200020d57805160ff19168380011785556200023e565b828001600101855582156200023e579182015b828111156200023d57825182559160200191906001019062000220565b5b5090506200024d919062000251565b5090565b5b808211156200026c57600081600090555060010162000252565b5090565b7f4e487b7100000000000000000000000000000000000000000000000000000000600052602260045260246000fd5b60006002820490506001821680620002b857607f821691505b602082108103620002ce57620002cd62000270565b5b50919050565b61379a80620002e46000396000f3fe6080604052600436106101815760003560e01c806370a08231116100d1578063a0712d681161008a578063c87b56dd11610064578063c87b56dd1461054d578063d5abeb011461058a578063e985e9c5146105b5578063f2fde38b146105f257610181565b8063a0712d68146104df578063a22cb465146104fb578063b88d4fde1461052457610181565b806370a08231146103e3578063715018a614610420578063818668d7146104375780638da5cb5b1461046057806395652cfa1461048b57806395d89b41146104b457610181565b806318160ddd1161013e57806342842e0e1161011857806342842e0e14610327578063453c2310146103505780636352211e1461037b5780636817c76c146103b857610181565b806318160ddd146102bc57806323b872dd146102e75780633ccfd60b1461031057610181565b80630116bc2d1461018657806301ffc9a7146101b157806306fdde03146101ee578063081812fc14610219578063095ea7b3146102565780631056ae311461027f575b600080fd5b34801561019257600080fd5b5061019b61061b565b6040516101a89190612175565b60405180910390f35b3480156101bd57600080fd5b506101d860048036038101906101d391906121fc565b61062e565b6040516101e59190612175565b60405180910390f35b3480156101fa57600080fd5b50610203610710565b60405161021091906122c2565b60405180910390f35b34801561022557600080fd5b50610240600480360381019061023b919061231a565b6107a2565b60405161024d9190612388565b60405180910390f35b34801561026257600080fd5b5061027d600480360381019061027891906123cf565b610827565b005b34801561028b57600080fd5b506102a660048036038101906102a1919061240f565b61093e565b6040516102b3919061244b565b60405180910390f35b3480156102c857600080fd5b506102d1610956565b6040516102de919061244b565b60405180910390f35b3480156102f357600080fd5b5061030e60048036038101906103099190612466565b61095c565b005b34801561031c57600080fd5b506103256109bc565b005b34801561033357600080fd5b5061034e60048036038101906103499190612466565b610aee565b005b34801561035c57600080fd5b50610365610b0e565b604051610372919061244b565b60405180910390f35b34801561038757600080fd5b506103a2600480360381019061039d919061231a565b610b14565b6040516103af9190612388565b60405180910390f35b3480156103c457600080fd5b506103cd610bc5565b6040516103da919061244b565b60405180910390f35b3480156103ef57600080fd5b5061040a6004803603810190610405919061240f565b610bcb565b604051610417919061244b565b60405180910390f35b34801561042c57600080fd5b50610435610c82565b005b34801561044357600080fd5b5061045e600480360381019061045991906124e5565b610d0a565b005b34801561046c57600080fd5b50610475610da3565b6040516104829190612388565b60405180910390f35b34801561049757600080fd5b506104b260048036038101906104ad9190612577565b610dcd565b005b3480156104c057600080fd5b506104c9610e5f565b6040516104d691906122c2565b60405180910390f35b6104f960048036038101906104f4919061231a565b610ef1565b005b34801561050757600080fd5b50610522600480360381019061051d91906125c4565b611163565b005b34801561053057600080fd5b5061054b60048036038101906105469190612734565b611179565b005b34801561055957600080fd5b50610574600480360381019061056f919061231a565b6111db565b60405161058191906122c2565b60405180910390f35b34801561059657600080fd5b5061059f611257565b6040516105ac919061244b565b60405180910390f35b3480156105c157600080fd5b506105dc60048036038101906105d791906127b7565b61125d565b6040516105e99190612175565b60405180910390f35b3480156105fe57600080fd5b506106196004803603810190610614919061240f565b6112f1565b005b600b60009054906101000a900460ff1681565b60007f80ac58cd000000000000000000000000000000000000000000000000000000007bffffffffffffffffffffffffffffffffffffffffffffffffffffffff1916827bffffffffffffffffffffffffffffffffffffffffffffffffffffffff191614806106f957507f5b5e139f000000000000000000000000000000000000000000000000000000007bffffffffffffffffffffffffffffffffffffffffffffffffffffffff1916827bffffffffffffffffffffffffffffffffffffffffffffffffffffffff1916145b806107095750610708826113e8565b5b9050919050565b60606000805461071f90612826565b80601f016020809104026020016040519081016040528092919081815260200182805461074b90612826565b80156107985780601f1061076d57610100808354040283529160200191610798565b820191906000526020600020905b81548152906001019060200180831161077b57829003601f168201915b5050505050905090565b60006107ad82611452565b6107ec576040517f08c379a00000000000000000000000000000000000000000000000000000000081526004016107e3906128c9565b60405180910390fd5b6004600083815260200190815260200160002060009054906101000a900473ffffffffffffffffffffffffffffffffffffffff169050919050565b600061083282610b14565b90508073ffffffffffffffffffffffffffffffffffffffff168373ffffffffffffffffffffffffffffffffffffffff16036108a2576040517f08c379a00000000000000000000000000000000000000000000000000000000081526004016108999061295b565b60405180910390fd5b8073ffffffffffffffffffffffffffffffffffffffff166108c16114be565b73ffffffffffffffffffffffffffffffffffffffff1614806108f057506108ef816108ea6114be565b61125d565b5b61092f576040517f08c379a0000000000000000000000000000000000000000000000000000000008152600401610926906129ed565b60405180910390fd5b61093983836114c6565b505050565b600d6020528060005260406000206000915090505481565b60085481565b61096d6109676114be565b8261157f565b6109ac576040517f08c379a00000000000000000000000000000000000000000000000000000000081526004016109a390612a7f565b60405180910390fd5b6109b783838361165d565b505050565b6109c46114be565b73ffffffffffffffffffffffffffffffffffffffff166109e2610da3565b73ffffffffffffffffffffffffffffffffffffffff1614610a38576040517f08c379a0000000000000000000000000000000000000000000000000000000008152600401610a2f90612aeb565b60405180910390fd5b6000610a42610da3565b73ffffffffffffffffffffffffffffffffffffffff1647604051610a6590612b3c565b60006040518083038185875af1925050503d8060008114610aa2576040519150601f19603f3d011682016040523d82523d6000602084013e610aa7565b606091505b5050905080610aeb576040517f08c379a0000000000000000000000000000000000000000000000000000000008152600401610ae290612b9d565b60405180910390fd5b50565b610b0983838360405180602001604052806000815250611179565b505050565b600a5481565b6000806002600084815260200190815260200160002060009054906101000a900473ffffffffffffffffffffffffffffffffffffffff169050600073ffffffffffffffffffffffffffffffffffffffff168173ffffffffffffffffffffffffffffffffffffffff1603610bbc576040517f08c379a0000000000000000000000000000000000000000000000000000000008152600401610bb390612c2f565b60405180910390fd5b80915050919050565b60075481565b60008073ffffffffffffffffffffffffffffffffffffffff168273ffffffffffffffffffffffffffffffffffffffff1603610c3b576040517f08c379a0000000000000000000000000000000000000000000000000000000008152600401610c3290612cc1565b60405180910390fd5b600360008373ffffffffffffffffffffffffffffffffffffffff1673ffffffffffffffffffffffffffffffffffffffff168152602001908152602001600020549050919050565b610c8a6114be565b73ffffffffffffffffffffffffffffffffffffffff16610ca8610da3565b73ffffffffffffffffffffffffffffffffffffffff1614610cfe576040517f08c379a0000000000000000000000000000000000000000000000000000000008152600401610cf590612aeb565b60405180910390fd5b610d0860006118c3565b565b610d126114be565b73ffffffffffffffffffffffffffffffffffffffff16610d30610da3565b73ffffffffffffffffffffffffffffffffffffffff1614610d86576040517f08c379a0000000000000000000000000000000000000000000000000000000008152600401610d7d90612aeb565b60405180910390fd5b80600b60006101000a81548160ff02191690831515021790555050565b6000600660009054906101000a900473ffffffffffffffffffffffffffffffffffffffff16905090565b610dd56114be565b73ffffffffffffffffffffffffffffffffffffffff16610df3610da3565b73ffffffffffffffffffffffffffffffffffffffff1614610e49576040517f08c379a0000000000000000000000000000000000000000000000000000000008152600401610e4090612aeb565b60405180910390fd5b8181600c9190610e5a9291906120b7565b505050565b606060018054610e6e90612826565b80601f0160208091040260200160405190810160405280929190818152602001828054610e9a90612826565b8015610ee75780601f10610ebc57610100808354040283529160200191610ee7565b820191906000526020600020905b815481529060010190602001808311610eca57829003601f168201915b5050505050905090565b600b60009054906101000a900460ff16610f40576040517f08c379a0000000000000000000000000000000000000000000000000000000008152600401610f3790612d2d565b60405180910390fd5b60075481610f4e9190612d7c565b34148015610f5d575060003414155b610f9c576040517f08c379a0000000000000000000000000000000000000000000000000000000008152600401610f9390612e22565b60405180910390fd5b60095481600854610fad9190612e42565b1115610fee576040517f08c379a0000000000000000000000000000000000000000000000000000000008152600401610fe590612ee4565b60405180910390fd5b600a5481600d60003373ffffffffffffffffffffffffffffffffffffffff1673ffffffffffffffffffffffffffffffffffffffff1681526020019081526020016000205461103c9190612e42565b111561107d576040517f08c379a000000000000000000000000000000000000000000000000000000000815260040161107490612f50565b60405180910390fd5b80600d60003373ffffffffffffffffffffffffffffffffffffffff1673ffffffffffffffffffffffffffffffffffffffff168152602001908152602001600020546110c89190612e42565b600d60003373ffffffffffffffffffffffffffffffffffffffff1673ffffffffffffffffffffffffffffffffffffffff1681526020019081526020016000208190555060005b8181101561115f57600060016008546111279190612e42565b90506008600081548092919061113c90612f70565b919050555061114b3382611989565b50808061115790612f70565b91505061110e565b5050565b61117561116e6114be565b83836119a7565b5050565b61118a6111846114be565b8361157f565b6111c9576040517f08c379a00000000000000000000000000000000000000000000000000000000081526004016111c090612a7f565b60405180910390fd5b6111d584848484611b13565b50505050565b60606111e682611452565b611225576040517f08c379a000000000000000000000000000000000000000000000000000000000815260040161121c90613004565b60405180910390fd5b600c61123083611b6f565b604051602001611241929190613140565b6040516020818303038152906040529050919050565b60095481565b6000600560008473ffffffffffffffffffffffffffffffffffffffff1673ffffffffffffffffffffffffffffffffffffffff16815260200190815260200160002060008373ffffffffffffffffffffffffffffffffffffffff1673ffffffffffffffffffffffffffffffffffffffff16815260200190815260200160002060009054906101000a900460ff16905092915050565b6112f96114be565b73ffffffffffffffffffffffffffffffffffffffff16611317610da3565b73ffffffffffffffffffffffffffffffffffffffff161461136d576040517f08c379a000000000000000000000000000000000000000000000000000000000815260040161136490612aeb565b60405180910390fd5b600073ffffffffffffffffffffffffffffffffffffffff168173ffffffffffffffffffffffffffffffffffffffff16036113dc576040517f08c379a00000000000000000000000000000000000000000000000000000000081526004016113d3906131e1565b60405180910390fd5b6113e5816118c3565b50565b60007f01ffc9a7000000000000000000000000000000000000000000000000000000007bffffffffffffffffffffffffffffffffffffffffffffffffffffffff1916827bffffffffffffffffffffffffffffffffffffffffffffffffffffffff1916149050919050565b60008073ffffffffffffffffffffffffffffffffffffffff166002600084815260200190815260200160002060009054906101000a900473ffffffffffffffffffffffffffffffffffffffff1673ffffffffffffffffffffffffffffffffffffffff1614159050919050565b600033905090565b816004600083815260200190815260200160002060006101000a81548173ffffffffffffffffffffffffffffffffffffffff021916908373ffffffffffffffffffffffffffffffffffffffff160217905550808273ffffffffffffffffffffffffffffffffffffffff1661153983610b14565b73ffffffffffffffffffffffffffffffffffffffff167f8c5be1e5ebec7d5bd14f71427d1e84f3dd0314c0f7b2291e5b200ac8c7c3b92560405160405180910390a45050565b600061158a82611452565b6115c9576040517f08c379a00000000000000000000000000000000000000000000000000000000081526004016115c090613273565b60405180910390fd5b60006115d483610b14565b90508073ffffffffffffffffffffffffffffffffffffffff168473ffffffffffffffffffffffffffffffffffffffff1614806116165750611615818561125d565b5b8061165457508373ffffffffffffffffffffffffffffffffffffffff1661163c846107a2565b73ffffffffffffffffffffffffffffffffffffffff16145b91505092915050565b8273ffffffffffffffffffffffffffffffffffffffff1661167d82610b14565b73ffffffffffffffffffffffffffffffffffffffff16146116d3576040517f08c379a00000000000000000000000000000000000000000000000000000000081526004016116ca90613305565b60405180910390fd5b600073ffffffffffffffffffffffffffffffffffffffff168273ffffffffffffffffffffffffffffffffffffffff1603611742576040517f08c379a000000000000000000000000000000000000000000000000000000000815260040161173990613397565b60405180910390fd5b61174d838383611ccf565b6117586000826114c6565b6001600360008573ffffffffffffffffffffffffffffffffffffffff1673ffffffffffffffffffffffffffffffffffffffff16815260200190815260200160002060008282546117a891906133b7565b925050819055506001600360008473ffffffffffffffffffffffffffffffffffffffff1673ffffffffffffffffffffffffffffffffffffffff16815260200190815260200160002060008282546117ff9190612e42565b92505081905550816002600083815260200190815260200160002060006101000a81548173ffffffffffffffffffffffffffffffffffffffff021916908373ffffffffffffffffffffffffffffffffffffffff160217905550808273ffffffffffffffffffffffffffffffffffffffff168473ffffffffffffffffffffffffffffffffffffffff167fddf252ad1be2c89b69c2b068fc378daa952ba7f163c4a11628f55a4df523b3ef60405160405180910390a46118be838383611cd4565b505050565b6000600660009054906101000a900473ffffffffffffffffffffffffffffffffffffffff16905081600660006101000a81548173ffffffffffffffffffffffffffffffffffffffff021916908373ffffffffffffffffffffffffffffffffffffffff1602179055508173ffffffffffffffffffffffffffffffffffffffff168173ffffffffffffffffffffffffffffffffffffffff167f8be0079c531659141344cd1fd0a4f28419497f9722a3daafe3b4186f6b6457e060405160405180910390a35050565b6119a3828260405180602001604052806000815250611cd9565b5050565b8173ffffffffffffffffffffffffffffffffffffffff168373ffffffffffffffffffffffffffffffffffffffff1603611a15576040517f08c379a0000000000000000000000000000000000000000000000000000000008152600401611a0c90613437565b60405180910390fd5b80600560008573ffffffffffffffffffffffffffffffffffffffff1673ffffffffffffffffffffffffffffffffffffffff16815260200190815260200160002060008473ffffffffffffffffffffffffffffffffffffffff1673ffffffffffffffffffffffffffffffffffffffff16815260200190815260200160002060006101000a81548160ff0219169083151502179055508173ffffffffffffffffffffffffffffffffffffffff168373ffffffffffffffffffffffffffffffffffffffff167f17307eab39ab6107e8899845ad3d59bd9653f200f220920489ca2b5937696c3183604051611b069190612175565b60405180910390a3505050565b611b1e84848461165d565b611b2a84848484611d34565b611b69576040517f08c379a0000000000000000000000000000000000000000000000000000000008152600401611b60906134c9565b60405180910390fd5b50505050565b606060008203611bb6576040518060400160405280600181526020017f30000000000000000000000000000000000000000000000000000000000000008152509050611cca565b600082905060005b60008214611be8578080611bd190612f70565b915050600a82611be19190613518565b9150611bbe565b60008167ffffffffffffffff811115611c0457611c03612609565b5b6040519080825280601f01601f191660200182016040528015611c365781602001600182028036833780820191505090505b5090505b60008514611cc357600182611c4f91906133b7565b9150600a85611c5e9190613549565b6030611c6a9190612e42565b60f81b818381518110611c8057611c7f61357a565b5b60200101907effffffffffffffffffffffffffffffffffffffffffffffffffffffffffffff1916908160001a905350600a85611cbc9190613518565b9450611c3a565b8093505050505b919050565b505050565b505050565b611ce38383611ebb565b611cf06000848484611d34565b611d2f576040517f08c379a0000000000000000000000000000000000000000000000000000000008152600401611d26906134c9565b60405180910390fd5b505050565b6000611d558473ffffffffffffffffffffffffffffffffffffffff16612094565b15611eae578373ffffffffffffffffffffffffffffffffffffffff1663150b7a02611d7e6114be565b8786866040518563ffffffff1660e01b8152600401611da094939291906135fe565b6020604051808303816000875af1925050508015611ddc57506040513d601f19601f82011682018060405250810190611dd9919061365f565b60015b611e5e573d8060008114611e0c576040519150601f19603f3d011682016040523d82523d6000602084013e611e11565b606091505b506000815103611e56576040517f08c379a0000000000000000000000000000000000000000000000000000000008152600401611e4d906134c9565b60405180910390fd5b805181602001fd5b63150b7a0260e01b7bffffffffffffffffffffffffffffffffffffffffffffffffffffffff1916817bffffffffffffffffffffffffffffffffffffffffffffffffffffffff191614915050611eb3565b600190505b949350505050565b600073ffffffffffffffffffffffffffffffffffffffff168273ffffffffffffffffffffffffffffffffffffffff1603611f2a576040517f08c379a0000000000000000000000000000000000000000000000000000000008152600401611f21906136d8565b60405180910390fd5b611f3381611452565b15611f73576040517f08c379a0000000000000000000000000000000000000000000000000000000008152600401611f6a90613744565b60405180910390fd5b611f7f60008383611ccf565b6001600360008473ffffffffffffffffffffffffffffffffffffffff1673ffffffffffffffffffffffffffffffffffffffff1681526020019081526020016000206000828254611fcf9190612e42565b92505081905550816002600083815260200190815260200160002060006101000a81548173ffffffffffffffffffffffffffffffffffffffff021916908373ffffffffffffffffffffffffffffffffffffffff160217905550808273ffffffffffffffffffffffffffffffffffffffff16600073ffffffffffffffffffffffffffffffffffffffff167fddf252ad1be2c89b69c2b068fc378daa952ba7f163c4a11628f55a4df523b3ef60405160405180910390a461209060008383611cd4565b5050565b6000808273ffffffffffffffffffffffffffffffffffffffff163b119050919050565b8280546120c390612826565b90600052602060002090601f0160209004810192826120e5576000855561212c565b82601f106120fe57803560ff191683800117855561212c565b8280016001018555821561212c579182015b8281111561212b578235825591602001919060010190612110565b5b509050612139919061213d565b5090565b5b8082111561215657600081600090555060010161213e565b5090565b60008115159050919050565b61216f8161215a565b82525050565b600060208201905061218a6000830184612166565b92915050565b6000604051905090565b600080fd5b600080fd5b60007fffffffff0000000000000000000000000000000000000000000000000000000082169050919050565b6121d9816121a4565b81146121e457600080fd5b50565b6000813590506121f6816121d0565b92915050565b6000602082840312156122125761221161219a565b5b6000612220848285016121e7565b91505092915050565b600081519050919050565b600082825260208201905092915050565b60005b83811015612263578082015181840152602081019050612248565b83811115612272576000848401525b50505050565b6000601f19601f8301169050919050565b600061229482612229565b61229e8185612234565b93506122ae818560208601612245565b6122b781612278565b840191505092915050565b600060208201905081810360008301526122dc8184612289565b905092915050565b6000819050919050565b6122f7816122e4565b811461230257600080fd5b50565b600081359050612314816122ee565b92915050565b6000602082840312156123305761232f61219a565b5b600061233e84828501612305565b91505092915050565b600073ffffffffffffffffffffffffffffffffffffffff82169050919050565b600061237282612347565b9050919050565b61238281612367565b82525050565b600060208201905061239d6000830184612379565b92915050565b6123ac81612367565b81146123b757600080fd5b50565b6000813590506123c9816123a3565b92915050565b600080604083850312156123e6576123e561219a565b5b60006123f4858286016123ba565b925050602061240585828601612305565b9150509250929050565b6000602082840312156124255761242461219a565b5b6000612433848285016123ba565b91505092915050565b612445816122e4565b82525050565b6000602082019050612460600083018461243c565b92915050565b60008060006060848603121561247f5761247e61219a565b5b600061248d868287016123ba565b935050602061249e868287016123ba565b92505060406124af86828701612305565b9150509250925092565b6124c28161215a565b81146124cd57600080fd5b50565b6000813590506124df816124b9565b92915050565b6000602082840312156124fb576124fa61219a565b5b6000612509848285016124d0565b91505092915050565b600080fd5b600080fd5b600080fd5b60008083601f84011261253757612536612512565b5b8235905067ffffffffffffffff81111561255457612553612517565b5b6020830191508360018202830111156125705761256f61251c565b5b9250929050565b6000806020838503121561258e5761258d61219a565b5b600083013567ffffffffffffffff8111156125ac576125ab61219f565b5b6125b885828601612521565b92509250509250929050565b600080604083850312156125db576125da61219a565b5b60006125e9858286016123ba565b92505060206125fa858286016124d0565b9150509250929050565b600080fd5b7f4e487b7100000000000000000000000000000000000000000000000000000000600052604160045260246000fd5b61264182612278565b810181811067ffffffffffffffff821117156126605761265f612609565b5b80604052505050565b6000612673612190565b905061267f8282612638565b919050565b600067ffffffffffffffff82111561269f5761269e612609565b5b6126a882612278565b9050602081019050919050565b82818337600083830152505050565b60006126d76126d284612684565b612669565b9050828152602081018484840111156126f3576126f2612604565b5b6126fe8482856126b5565b509392505050565b600082601f83011261271b5761271a612512565b5b813561272b8482602086016126c4565b91505092915050565b6000806000806080858703121561274e5761274d61219a565b5b600061275c878288016123ba565b945050602061276d878288016123ba565b935050604061277e87828801612305565b925050606085013567ffffffffffffffff81111561279f5761279e61219f565b5b6127ab87828801612706565b91505092959194509250565b600080604083850312156127ce576127cd61219a565b5b60006127dc858286016123ba565b92505060206127ed858286016123ba565b9150509250929050565b7f4e487b7100000000000000000000000000000000000000000000000000000000600052602260045260246000fd5b6000600282049050600182168061283e57607f821691505b602082108103612851576128506127f7565b5b50919050565b7f4552433732313a20617070726f76656420717565727920666f72206e6f6e657860008201527f697374656e7420746f6b656e0000000000000000000000000000000000000000602082015250565b60006128b3602c83612234565b91506128be82612857565b604082019050919050565b600060208201905081810360008301526128e2816128a6565b9050919050565b7f4552433732313a20617070726f76616c20746f2063757272656e74206f776e6560008201527f7200000000000000000000000000000000000000000000000000000000000000602082015250565b6000612945602183612234565b9150612950826128e9565b604082019050919050565b6000602082019050818103600083015261297481612938565b9050919050565b7f4552433732313a20617070726f76652063616c6c6572206973206e6f74206f7760008201527f6e6572206e6f7220617070726f76656420666f7220616c6c0000000000000000602082015250565b60006129d7603883612234565b91506129e28261297b565b604082019050919050565b60006020820190508181036000830152612a06816129ca565b9050919050565b7f4552433732313a207472616e736665722063616c6c6572206973206e6f74206f60008201527f776e6572206e6f7220617070726f766564000000000000000000000000000000602082015250565b6000612a69603183612234565b9150612a7482612a0d565b604082019050919050565b60006020820190508181036000830152612a9881612a5c565b9050919050565b7f4f776e61626c653a2063616c6c6572206973206e6f7420746865206f776e6572600082015250565b6000612ad5602083612234565b9150612ae082612a9f565b602082019050919050565b60006020820190508181036000830152612b0481612ac8565b9050919050565b600081905092915050565b50565b6000612b26600083612b0b565b9150612b3182612b16565b600082019050919050565b6000612b4782612b19565b9150819050919050565b7f7769746864726177206661696c65640000000000000000000000000000000000600082015250565b6000612b87600f83612234565b9150612b9282612b51565b602082019050919050565b60006020820190508181036000830152612bb681612b7a565b9050919050565b7f4552433732313a206f776e657220717565727920666f72206e6f6e657869737460008201527f656e7420746f6b656e0000000000000000000000000000000000000000000000602082015250565b6000612c19602983612234565b9150612c2482612bbd565b604082019050919050565b60006020820190508181036000830152612c4881612c0c565b9050919050565b7f4552433732313a2062616c616e636520717565727920666f7220746865207a6560008201527f726f206164647265737300000000000000000000000000000000000000000000602082015250565b6000612cab602a83612234565b9150612cb682612c4f565b604082019050919050565b60006020820190508181036000830152612cda81612c9e565b9050919050565b7f6d696e74696e67206e6f7420656e61626c656400000000000000000000000000600082015250565b6000612d17601383612234565b9150612d2282612ce1565b602082019050919050565b60006020820190508181036000830152612d4681612d0a565b9050919050565b7f4e487b7100000000000000000000000000000000000000000000000000000000600052601160045260246000fd5b6000612d87826122e4565b9150612d92836122e4565b9250817fffffffffffffffffffffffffffffffffffffffffffffffffffffffffffffffff0483118215151615612dcb57612dca612d4d565b5b828202905092915050565b7f77726f6e67206d696e742076616c756500000000000000000000000000000000600082015250565b6000612e0c601083612234565b9150612e1782612dd6565b602082019050919050565b60006020820190508181036000830152612e3b81612dff565b9050919050565b6000612e4d826122e4565b9150612e58836122e4565b9250827fffffffffffffffffffffffffffffffffffffffffffffffffffffffffffffffff03821115612e8d57612e8c612d4d565b5b828201905092915050565b7f736f6c64204f7574000000000000000000000000000000000000000000000000600082015250565b6000612ece600883612234565b9150612ed982612e98565b602082019050919050565b60006020820190508181036000830152612efd81612ec1565b9050919050565b7f657863656564206d61782077616c6c6574000000000000000000000000000000600082015250565b6000612f3a601183612234565b9150612f4582612f04565b602082019050919050565b60006020820190508181036000830152612f6981612f2d565b9050919050565b6000612f7b826122e4565b91507fffffffffffffffffffffffffffffffffffffffffffffffffffffffffffffffff8203612fad57612fac612d4d565b5b600182019050919050565b7f546f6b656e20646f6573206e6f74206578697374202100000000000000000000600082015250565b6000612fee601683612234565b9150612ff982612fb8565b602082019050919050565b6000602082019050818103600083015261301d81612fe1565b9050919050565b600081905092915050565b60008190508160005260206000209050919050565b6000815461305181612826565b61305b8186613024565b945060018216600081146130765760018114613087576130ba565b60ff198316865281860193506130ba565b6130908561302f565b60005b838110156130b257815481890152600182019150602081019050613093565b838801955050505b50505092915050565b60006130ce82612229565b6130d88185613024565b93506130e8818560208601612245565b80840191505092915050565b7f2e6a736f6e000000000000000000000000000000000000000000000000000000600082015250565b600061312a600583613024565b9150613135826130f4565b600582019050919050565b600061314c8285613044565b915061315882846130c3565b91506131638261311d565b91508190509392505050565b7f4f776e61626c653a206e6577206f776e657220697320746865207a65726f206160008201527f6464726573730000000000000000000000000000000000000000000000000000602082015250565b60006131cb602683612234565b91506131d68261316f565b604082019050919050565b600060208201905081810360008301526131fa816131be565b9050919050565b7f4552433732313a206f70657261746f7220717565727920666f72206e6f6e657860008201527f697374656e7420746f6b656e0000000000000000000000000000000000000000602082015250565b600061325d602c83612234565b915061326882613201565b604082019050919050565b6000602082019050818103600083015261328c81613250565b9050919050565b7f4552433732313a207472616e736665722066726f6d20696e636f72726563742060008201527f6f776e6572000000000000000000000000000000000000000000000000000000602082015250565b60006132ef602583612234565b91506132fa82613293565b604082019050919050565b6000602082019050818103600083015261331e816132e2565b9050919050565b7f4552433732313a207472616e7366657220746f20746865207a65726f2061646460008201527f7265737300000000000000000000000000000000000000000000000000000000602082015250565b6000613381602483612234565b915061338c82613325565b604082019050919050565b600060208201905081810360008301526133b081613374565b9050919050565b60006133c2826122e4565b91506133cd836122e4565b9250828210156133e0576133df612d4d565b5b828203905092915050565b7f4552433732313a20617070726f766520746f2063616c6c657200000000000000600082015250565b6000613421601983612234565b915061342c826133eb565b602082019050919050565b6000602082019050818103600083015261345081613414565b9050919050565b7f4552433732313a207472616e7366657220746f206e6f6e20455243373231526560008201527f63656976657220696d706c656d656e7465720000000000000000000000000000602082015250565b60006134b3603283612234565b91506134be82613457565b604082019050919050565b600060208201905081810360008301526134e2816134a6565b9050919050565b7f4e487b7100000000000000000000000000000000000000000000000000000000600052601260045260246000fd5b6000613523826122e4565b915061352e836122e4565b92508261353e5761353d6134e9565b5b828204905092915050565b6000613554826122e4565b915061355f836122e4565b92508261356f5761356e6134e9565b5b828206905092915050565b7f4e487b7100000000000000000000000000000000000000000000000000000000600052603260045260246000fd5b600081519050919050565b600082825260208201905092915050565b60006135d0826135a9565b6135da81856135b4565b93506135ea818560208601612245565b6135f381612278565b840191505092915050565b60006080820190506136136000830187612379565b6136206020830186612379565b61362d604083018561243c565b818103606083015261363f81846135c5565b905095945050505050565b600081519050613659816121d0565b92915050565b6000602082840312156136755761367461219a565b5b60006136838482850161364a565b91505092915050565b7f4552433732313a206d696e7420746f20746865207a65726f2061646472657373600082015250565b60006136c2602083612234565b91506136cd8261368c565b602082019050919050565b600060208201905081810360008301526136f1816136b5565b9050919050565b7f4552433732313a20746f6b656e20616c7265616479206d696e74656400000000600082015250565b600061372e601c83612234565b9150613739826136f8565b602082019050919050565b6000602082019050818103600083015261375d81613721565b905091905056fea2646970667358221220bc059d689bfc4216187b78cf7d571f36d14edf36ff710e9decf31ca8e7e0e70c64736f6c634300080e0033",
  "immutableReferences": {},
  "source": "// SPDX-License-Identifier: MIT\npragma solidity ^0.8.0;\nimport \"../node_modules/@openzeppelin/contracts/token/ERC721/ERC721.sol\";\nimport \"../node_modules/@openzeppelin/contracts/access/Ownable.sol\";\n\ncontract DapDogoNFT is ERC721 ,Ownable \n{\n  uint256 public mintPrice;\n  uint256 public totalSupply;\n  uint256 public maxSupply;\n  uint256 public maxPerWallet;\n  bool public isPublicMintEnabled;\n  string internal baseURI;\n  mapping(address=> uint256) public walletMint;\n\n\n  constructor() payable ERC721(\"DapDogo\",\"DADO\"){\n    mintPrice=0.1 ether;\n    totalSupply=0;\n    maxSupply=1000;\n    maxPerWallet=5;\n    // set wallet withdrawal address\n  }\n\n  function setPublicMintEnabled(bool _isPublicMintEnabled) external onlyOwner{\n\n    isPublicMintEnabled=_isPublicMintEnabled;\n  }\n\n\n  function setBaseTokenUri(string calldata _baseURI) external onlyOwner{\n    baseURI = _baseURI;\n  }\n\n  function tokenURI(uint256 _tokenId) public view override returns (string memory){\n    require(_exists(_tokenId),\"Token does not exist !\");\n    return string(abi.encodePacked(baseURI, Strings.toString(_tokenId),\".json\"));\n  }\n\n  function withdraw() external onlyOwner{\n    (bool success,)= owner().call{value:address(this).balance}(\"\");\n    require(success,\"withdraw failed\");\n  }\n\n\n  function mint(uint256 _quantity) public payable {\n  \n    require(isPublicMintEnabled,\"minting not enabled\");\n    require(msg.value == _quantity* mintPrice && msg.value!=0,\"wrong mint value\");\n    require(totalSupply + _quantity <= maxSupply,\"sold Out\");\n    require(walletMint[msg.sender] + _quantity <= maxPerWallet,\"exceed max wallet\");\n\n    walletMint[msg.sender]= walletMint[msg.sender] + (_quantity);\n\n    for (uint256 i=0;i<_quantity;i++){\n      uint256 newTokenId = totalSupply +1;\n      totalSupply++;\n      _safeMint(msg.sender,newTokenId);\n    }\n\n\n  }\n\n\n  // function mintById(uint256 _tokenId) public payable {\n  //    require(isPublicMintEnabled,\"minting not enabled\");\n  //    require(msg.value==mintPrice,\"wrong mint price\");\n  //    require(!_exists(_tokenId),\"Token Id exists!\");\n  //    require(!tokenId>1000,\" token Id out of bound\" )\n  //    require(walletMint[msg.sender] + 1 <= maxPerWallet,\"exceed max wallet\");\n  \n  // }\n\n}",
  "sourcePath": "C:\\Users\\aryan\\blockchain\\NFT_Auction\\contracts\\DapDogoNFT.sol",
  "compiler": {
    "name": "solc",
    "version": "0.8.14+commit.80d49f37.Emscripten.clang"
  },
  "schemaVersion": "3.4.4",
  "updatedAt": "2022-06-10T10:22:51.449Z",
  "networkType": "ethereum",
  "devdoc": {
    "kind": "dev",
    "methods": {
      "approve(address,uint256)": {
        "details": "See {IERC721-approve}."
      },
      "balanceOf(address)": {
        "details": "See {IERC721-balanceOf}."
      },
      "getApproved(uint256)": {
        "details": "See {IERC721-getApproved}."
      },
      "isApprovedForAll(address,address)": {
        "details": "See {IERC721-isApprovedForAll}."
      },
      "name()": {
        "details": "See {IERC721Metadata-name}."
      },
      "owner()": {
        "details": "Returns the address of the current owner."
      },
      "ownerOf(uint256)": {
        "details": "See {IERC721-ownerOf}."
      },
      "renounceOwnership()": {
        "details": "Leaves the contract without owner. It will not be possible to call `onlyOwner` functions anymore. Can only be called by the current owner. NOTE: Renouncing ownership will leave the contract without an owner, thereby removing any functionality that is only available to the owner."
      },
      "safeTransferFrom(address,address,uint256)": {
        "details": "See {IERC721-safeTransferFrom}."
      },
      "safeTransferFrom(address,address,uint256,bytes)": {
        "details": "See {IERC721-safeTransferFrom}."
      },
      "setApprovalForAll(address,bool)": {
        "details": "See {IERC721-setApprovalForAll}."
      },
      "supportsInterface(bytes4)": {
        "details": "See {IERC165-supportsInterface}."
      },
      "symbol()": {
        "details": "See {IERC721Metadata-symbol}."
      },
      "transferFrom(address,address,uint256)": {
        "details": "See {IERC721-transferFrom}."
      },
      "transferOwnership(address)": {
        "details": "Transfers ownership of the contract to a new account (`newOwner`). Can only be called by the current owner."
      }
    },
    "version": 1
  },
  "userdoc": {
    "kind": "user",
    "methods": {},
    "version": 1
  }
}