{
  "contractName": "DapDogoNFT",
  "abi": [
    {
      "inputs": [],
      "stateMutability": "payable",
      "type": "constructor",
      "payable": true
    },
    {
      "anonymous": false,
      "inputs": [
        {
          "indexed": true,
          "internalType": "address",
          "name": "owner",
          "type": "address"
        },
        {
          "indexed": true,
          "internalType": "address",
          "name": "approved",
          "type": "address"
        },
        {
          "indexed": true,
          "internalType": "uint256",
          "name": "tokenId",
          "type": "uint256"
        }
      ],
      "name": "Approval",
      "type": "event"
    },
    {
      "anonymous": false,
      "inputs": [
        {
          "indexed": true,
          "internalType": "address",
          "name": "owner",
          "type": "address"
        },
        {
          "indexed": true,
          "internalType": "address",
          "name": "operator",
          "type": "address"
        },
        {
          "indexed": false,
          "internalType": "bool",
          "name": "approved",
          "type": "bool"
        }
      ],
      "name": "ApprovalForAll",
      "type": "event"
    },
    {
      "anonymous": false,
      "inputs": [
        {
          "indexed": true,
          "internalType": "address",
          "name": "previousOwner",
          "type": "address"
        },
        {
          "indexed": true,
          "internalType": "address",
          "name": "newOwner",
          "type": "address"
        }
      ],
      "name": "OwnershipTransferred",
      "type": "event"
    },
    {
      "anonymous": false,
      "inputs": [
        {
          "indexed": true,
          "internalType": "address",
          "name": "from",
          "type": "address"
        },
        {
          "indexed": true,
          "internalType": "address",
          "name": "to",
          "type": "address"
        },
        {
          "indexed": true,
          "internalType": "uint256",
          "name": "tokenId",
          "type": "uint256"
        }
      ],
      "name": "Transfer",
      "type": "event"
    },
    {
      "inputs": [
        {
          "internalType": "address",
          "name": "to",
          "type": "address"
        },
        {
          "internalType": "uint256",
          "name": "tokenId",
          "type": "uint256"
        }
      ],
      "name": "approve",
      "outputs": [],
      "stateMutability": "nonpayable",
      "type": "function"
    },
    {
      "inputs": [
        {
          "internalType": "address",
          "name": "owner",
          "type": "address"
        }
      ],
      "name": "balanceOf",
      "outputs": [
        {
          "internalType": "uint256",
          "name": "",
          "type": "uint256"
        }
      ],
      "stateMutability": "view",
      "type": "function",
      "constant": true
    },
    {
      "inputs": [
        {
          "internalType": "uint256",
          "name": "tokenId",
          "type": "uint256"
        }
      ],
      "name": "getApproved",
      "outputs": [
        {
          "internalType": "address",
          "name": "",
          "type": "address"
        }
      ],
      "stateMutability": "view",
      "type": "function",
      "constant": true
    },
    {
      "inputs": [
        {
          "internalType": "address",
          "name": "owner",
          "type": "address"
        },
        {
          "internalType": "address",
          "name": "operator",
          "type": "address"
        }
      ],
      "name": "isApprovedForAll",
      "outputs": [
        {
          "internalType": "bool",
          "name": "",
          "type": "bool"
        }
      ],
      "stateMutability": "view",
      "type": "function",
      "constant": true
    },
    {
      "inputs": [],
      "name": "isPublicMintEnabled",
      "outputs": [
        {
          "internalType": "bool",
          "name": "",
          "type": "bool"
        }
      ],
      "stateMutability": "view",
      "type": "function",
      "constant": true
    },
    {
      "inputs": [],
      "name": "maxPerWallet",
      "outputs": [
        {
          "internalType": "uint256",
          "name": "",
          "type": "uint256"
        }
      ],
      "stateMutability": "view",
      "type": "function",
      "constant": true
    },
    {
      "inputs": [],
      "name": "maxSupply",
      "outputs": [
        {
          "internalType": "uint256",
          "name": "",
          "type": "uint256"
        }
      ],
      "stateMutability": "view",
      "type": "function",
      "constant": true
    },
    {
      "inputs": [],
      "name": "mintPrice",
      "outputs": [
        {
          "internalType": "uint256",
          "name": "",
          "type": "uint256"
        }
      ],
      "stateMutability": "view",
      "type": "function",
      "constant": true
    },
    {
      "inputs": [],
      "name": "name",
      "outputs": [
        {
          "internalType": "string",
          "name": "",
          "type": "string"
        }
      ],
      "stateMutability": "view",
      "type": "function",
      "constant": true
    },
    {
      "inputs": [],
      "name": "owner",
      "outputs": [
        {
          "internalType": "address",
          "name": "",
          "type": "address"
        }
      ],
      "stateMutability": "view",
      "type": "function",
      "constant": true
    },
    {
      "inputs": [
        {
          "internalType": "uint256",
          "name": "tokenId",
          "type": "uint256"
        }
      ],
      "name": "ownerOf",
      "outputs": [
        {
          "internalType": "address",
          "name": "",
          "type": "address"
        }
      ],
      "stateMutability": "view",
      "type": "function",
      "constant": true
    },
    {
      "inputs": [],
      "name": "renounceOwnership",
      "outputs": [],
      "stateMutability": "nonpayable",
      "type": "function"
    },
    {
      "inputs": [
        {
          "internalType": "address",
          "name": "from",
          "type": "address"
        },
        {
          "internalType": "address",
          "name": "to",
          "type": "address"
        },
        {
          "internalType": "uint256",
          "name": "tokenId",
          "type": "uint256"
        }
      ],
      "name": "safeTransferFrom",
      "outputs": [],
      "stateMutability": "nonpayable",
      "type": "function"
    },
    {
      "inputs": [
        {
          "internalType": "address",
          "name": "from",
          "type": "address"
        },
        {
          "internalType": "address",
          "name": "to",
          "type": "address"
        },
        {
          "internalType": "uint256",
          "name": "tokenId",
          "type": "uint256"
        },
        {
          "internalType": "bytes",
          "name": "_data",
          "type": "bytes"
        }
      ],
      "name": "safeTransferFrom",
      "outputs": [],
      "stateMutability": "nonpayable",
      "type": "function"
    },
    {
      "inputs": [
        {
          "internalType": "address",
          "name": "operator",
          "type": "address"
        },
        {
          "internalType": "bool",
          "name": "approved",
          "type": "bool"
        }
      ],
      "name": "setApprovalForAll",
      "outputs": [],
      "stateMutability": "nonpayable",
      "type": "function"
    },
    {
      "inputs": [
        {
          "internalType": "bytes4",
          "name": "interfaceId",
          "type": "bytes4"
        }
      ],
      "name": "supportsInterface",
      "outputs": [
        {
          "internalType": "bool",
          "name": "",
          "type": "bool"
        }
      ],
      "stateMutability": "view",
      "type": "function",
      "constant": true
    },
    {
      "inputs": [],
      "name": "symbol",
      "outputs": [
        {
          "internalType": "string",
          "name": "",
          "type": "string"
        }
      ],
      "stateMutability": "view",
      "type": "function",
      "constant": true
    },
    {
      "inputs": [],
      "name": "totalSupply",
      "outputs": [
        {
          "internalType": "uint256",
          "name": "",
          "type": "uint256"
        }
      ],
      "stateMutability": "view",
      "type": "function",
      "constant": true
    },
    {
      "inputs": [
        {
          "internalType": "address",
          "name": "from",
          "type": "address"
        },
        {
          "internalType": "address",
          "name": "to",
          "type": "address"
        },
        {
          "internalType": "uint256",
          "name": "tokenId",
          "type": "uint256"
        }
      ],
      "name": "transferFrom",
      "outputs": [],
      "stateMutability": "nonpayable",
      "type": "function"
    },
    {
      "inputs": [
        {
          "internalType": "address",
          "name": "newOwner",
          "type": "address"
        }
      ],
      "name": "transferOwnership",
      "outputs": [],
      "stateMutability": "nonpayable",
      "type": "function"
    },
    {
      "inputs": [
        {
          "internalType": "address",
          "name": "",
          "type": "address"
        }
      ],
      "name": "walletMint",
      "outputs": [
        {
          "internalType": "uint256",
          "name": "",
          "type": "uint256"
        }
      ],
      "stateMutability": "view",
      "type": "function",
      "constant": true
    },
    {
      "inputs": [
        {
          "internalType": "bool",
          "name": "_isPublicMintEnabled",
          "type": "bool"
        }
      ],
      "name": "setPublicMintEnabled",
      "outputs": [],
      "stateMutability": "nonpayable",
      "type": "function"
    },
    {
      "inputs": [
        {
          "internalType": "string",
          "name": "_baseURI",
          "type": "string"
        }
      ],
      "name": "setBaseTokenUri",
      "outputs": [],
      "stateMutability": "nonpayable",
      "type": "function"
    },
    {
      "inputs": [
        {
          "internalType": "uint256",
          "name": "_tokenId",
          "type": "uint256"
        }
      ],
      "name": "tokenURI",
      "outputs": [
        {
          "internalType": "string",
          "name": "",
          "type": "string"
        }
      ],
      "stateMutability": "view",
      "type": "function",
      "constant": true
    },
    {
      "inputs": [],
      "name": "withdraw",
      "outputs": [],
      "stateMutability": "nonpayable",
      "type": "function"
    },
    {
      "inputs": [
        {
          "internalType": "uint256",
          "name": "_quantity",
          "type": "uint256"
        }
      ],
      "name": "mint",
      "outputs": [],
      "stateMutability": "payable",
      "type": "function",
      "payable": true
    }
  ],
  "bytecode": "0x60806040526040518060400160405280600781526020017f446170446f676f000000000000000000000000000000000000000000000000008152506040518060400160405280600481526020017f4441444f00000000000000000000000000000000000000000000000000000000815250816000908162000081919062000434565b50806001908162000093919062000434565b505050620000b6620000aa620000ec60201b60201c565b620000f460201b60201c565b600160078190555067016345785d8a000060088190555060006009819055506103e8600a819055506005600b819055506200051b565b600033905090565b6000600660009054906101000a900473ffffffffffffffffffffffffffffffffffffffff16905081600660006101000a81548173ffffffffffffffffffffffffffffffffffffffff021916908373ffffffffffffffffffffffffffffffffffffffff1602179055508173ffffffffffffffffffffffffffffffffffffffff168173ffffffffffffffffffffffffffffffffffffffff167f8be0079c531659141344cd1fd0a4f28419497f9722a3daafe3b4186f6b6457e060405160405180910390a35050565b600081519050919050565b7f4e487b7100000000000000000000000000000000000000000000000000000000600052604160045260246000fd5b7f4e487b7100000000000000000000000000000000000000000000000000000000600052602260045260246000fd5b600060028204905060018216806200023c57607f821691505b602082108103620002525762000251620001f4565b5b50919050565b60008190508160005260206000209050919050565b60006020601f8301049050919050565b600082821b905092915050565b600060088302620002bc7fffffffffffffffffffffffffffffffffffffffffffffffffffffffffffffffff826200027d565b620002c886836200027d565b95508019841693508086168417925050509392505050565b6000819050919050565b6000819050919050565b6000620003156200030f6200030984620002e0565b620002ea565b620002e0565b9050919050565b6000819050919050565b6200033183620002f4565b6200034962000340826200031c565b8484546200028a565b825550505050565b600090565b6200036062000351565b6200036d81848462000326565b505050565b5b8181101562000395576200038960008262000356565b60018101905062000373565b5050565b601f821115620003e457620003ae8162000258565b620003b9846200026d565b81016020851015620003c9578190505b620003e1620003d8856200026d565b83018262000372565b50505b505050565b600082821c905092915050565b60006200040960001984600802620003e9565b1980831691505092915050565b6000620004248383620003f6565b9150826002028217905092915050565b6200043f82620001ba565b67ffffffffffffffff8111156200045b576200045a620001c5565b5b62000467825462000223565b6200047482828562000399565b600060209050601f831160018114620004ac576000841562000497578287015190505b620004a3858262000416565b86555062000513565b601f198416620004bc8662000258565b60005b82811015620004e657848901518255600182019150602085019450602081019050620004bf565b8683101562000506578489015162000502601f891682620003f6565b8355505b6001600288020188555050505b505050505050565b613a21806200052b6000396000f3fe6080604052600436106101815760003560e01c806370a08231116100d1578063a0712d681161008a578063c87b56dd11610064578063c87b56dd1461054d578063d5abeb011461058a578063e985e9c5146105b5578063f2fde38b146105f257610181565b8063a0712d68146104df578063a22cb465146104fb578063b88d4fde1461052457610181565b806370a08231146103e3578063715018a614610420578063818668d7146104375780638da5cb5b1461046057806395652cfa1461048b57806395d89b41146104b457610181565b806318160ddd1161013e57806342842e0e1161011857806342842e0e14610327578063453c2310146103505780636352211e1461037b5780636817c76c146103b857610181565b806318160ddd146102bc57806323b872dd146102e75780633ccfd60b1461031057610181565b80630116bc2d1461018657806301ffc9a7146101b157806306fdde03146101ee578063081812fc14610219578063095ea7b3146102565780631056ae311461027f575b600080fd5b34801561019257600080fd5b5061019b61061b565b6040516101a8919061211a565b60405180910390f35b3480156101bd57600080fd5b506101d860048036038101906101d391906121a1565b61062e565b6040516101e5919061211a565b60405180910390f35b3480156101fa57600080fd5b50610203610710565b6040516102109190612267565b60405180910390f35b34801561022557600080fd5b50610240600480360381019061023b91906122bf565b6107a2565b60405161024d919061232d565b60405180910390f35b34801561026257600080fd5b5061027d60048036038101906102789190612374565b610827565b005b34801561028b57600080fd5b506102a660048036038101906102a191906123b4565b61093e565b6040516102b391906123f0565b60405180910390f35b3480156102c857600080fd5b506102d1610956565b6040516102de91906123f0565b60405180910390f35b3480156102f357600080fd5b5061030e6004803603810190610309919061240b565b61095c565b005b34801561031c57600080fd5b506103256109bc565b005b34801561033357600080fd5b5061034e6004803603810190610349919061240b565b610aee565b005b34801561035c57600080fd5b50610365610b0e565b60405161037291906123f0565b60405180910390f35b34801561038757600080fd5b506103a2600480360381019061039d91906122bf565b610b14565b6040516103af919061232d565b60405180910390f35b3480156103c457600080fd5b506103cd610bc5565b6040516103da91906123f0565b60405180910390f35b3480156103ef57600080fd5b5061040a600480360381019061040591906123b4565b610bcb565b60405161041791906123f0565b60405180910390f35b34801561042c57600080fd5b50610435610c82565b005b34801561044357600080fd5b5061045e6004803603810190610459919061248a565b610d0a565b005b34801561046c57600080fd5b50610475610da3565b604051610482919061232d565b60405180910390f35b34801561049757600080fd5b506104b260048036038101906104ad919061251c565b610dcd565b005b3480156104c057600080fd5b506104c9610e5f565b6040516104d69190612267565b60405180910390f35b6104f960048036038101906104f491906122bf565b610ef1565b005b34801561050757600080fd5b50610522600480360381019061051d9190612569565b6111ab565b005b34801561053057600080fd5b5061054b600480360381019061054691906126d9565b6111c1565b005b34801561055957600080fd5b50610574600480360381019061056f91906122bf565b611223565b6040516105819190612267565b60405180910390f35b34801561059657600080fd5b5061059f61129f565b6040516105ac91906123f0565b60405180910390f35b3480156105c157600080fd5b506105dc60048036038101906105d7919061275c565b6112a5565b6040516105e9919061211a565b60405180910390f35b3480156105fe57600080fd5b50610619600480360381019061061491906123b4565b611339565b005b600c60009054906101000a900460ff1681565b60007f80ac58cd000000000000000000000000000000000000000000000000000000007bffffffffffffffffffffffffffffffffffffffffffffffffffffffff1916827bffffffffffffffffffffffffffffffffffffffffffffffffffffffff191614806106f957507f5b5e139f000000000000000000000000000000000000000000000000000000007bffffffffffffffffffffffffffffffffffffffffffffffffffffffff1916827bffffffffffffffffffffffffffffffffffffffffffffffffffffffff1916145b80610709575061070882611430565b5b9050919050565b60606000805461071f906127cb565b80601f016020809104026020016040519081016040528092919081815260200182805461074b906127cb565b80156107985780601f1061076d57610100808354040283529160200191610798565b820191906000526020600020905b81548152906001019060200180831161077b57829003601f168201915b5050505050905090565b60006107ad8261149a565b6107ec576040517f08c379a00000000000000000000000000000000000000000000000000000000081526004016107e39061286e565b60405180910390fd5b6004600083815260200190815260200160002060009054906101000a900473ffffffffffffffffffffffffffffffffffffffff169050919050565b600061083282610b14565b90508073ffffffffffffffffffffffffffffffffffffffff168373ffffffffffffffffffffffffffffffffffffffff16036108a2576040517f08c379a000000000000000000000000000000000000000000000000000000000815260040161089990612900565b60405180910390fd5b8073ffffffffffffffffffffffffffffffffffffffff166108c1611506565b73ffffffffffffffffffffffffffffffffffffffff1614806108f057506108ef816108ea611506565b6112a5565b5b61092f576040517f08c379a000000000000000000000000000000000000000000000000000000000815260040161092690612992565b60405180910390fd5b610939838361150e565b505050565b600e6020528060005260406000206000915090505481565b60095481565b61096d610967611506565b826115c7565b6109ac576040517f08c379a00000000000000000000000000000000000000000000000000000000081526004016109a390612a24565b60405180910390fd5b6109b78383836116a5565b505050565b6109c4611506565b73ffffffffffffffffffffffffffffffffffffffff166109e2610da3565b73ffffffffffffffffffffffffffffffffffffffff1614610a38576040517f08c379a0000000000000000000000000000000000000000000000000000000008152600401610a2f90612a90565b60405180910390fd5b6000610a42610da3565b73ffffffffffffffffffffffffffffffffffffffff1647604051610a6590612ae1565b60006040518083038185875af1925050503d8060008114610aa2576040519150601f19603f3d011682016040523d82523d6000602084013e610aa7565b606091505b5050905080610aeb576040517f08c379a0000000000000000000000000000000000000000000000000000000008152600401610ae290612b42565b60405180910390fd5b50565b610b09838383604051806020016040528060008152506111c1565b505050565b600b5481565b6000806002600084815260200190815260200160002060009054906101000a900473ffffffffffffffffffffffffffffffffffffffff169050600073ffffffffffffffffffffffffffffffffffffffff168173ffffffffffffffffffffffffffffffffffffffff1603610bbc576040517f08c379a0000000000000000000000000000000000000000000000000000000008152600401610bb390612bd4565b60405180910390fd5b80915050919050565b60085481565b60008073ffffffffffffffffffffffffffffffffffffffff168273ffffffffffffffffffffffffffffffffffffffff1603610c3b576040517f08c379a0000000000000000000000000000000000000000000000000000000008152600401610c3290612c66565b60405180910390fd5b600360008373ffffffffffffffffffffffffffffffffffffffff1673ffffffffffffffffffffffffffffffffffffffff168152602001908152602001600020549050919050565b610c8a611506565b73ffffffffffffffffffffffffffffffffffffffff16610ca8610da3565b73ffffffffffffffffffffffffffffffffffffffff1614610cfe576040517f08c379a0000000000000000000000000000000000000000000000000000000008152600401610cf590612a90565b60405180910390fd5b610d08600061190b565b565b610d12611506565b73ffffffffffffffffffffffffffffffffffffffff16610d30610da3565b73ffffffffffffffffffffffffffffffffffffffff1614610d86576040517f08c379a0000000000000000000000000000000000000000000000000000000008152600401610d7d90612a90565b60405180910390fd5b80600c60006101000a81548160ff02191690831515021790555050565b6000600660009054906101000a900473ffffffffffffffffffffffffffffffffffffffff16905090565b610dd5611506565b73ffffffffffffffffffffffffffffffffffffffff16610df3610da3565b73ffffffffffffffffffffffffffffffffffffffff1614610e49576040517f08c379a0000000000000000000000000000000000000000000000000000000008152600401610e4090612a90565b60405180910390fd5b8181600d9182610e5a929190612e3d565b505050565b606060018054610e6e906127cb565b80601f0160208091040260200160405190810160405280929190818152602001828054610e9a906127cb565b8015610ee75780601f10610ebc57610100808354040283529160200191610ee7565b820191906000526020600020905b815481529060010190602001808311610eca57829003601f168201915b5050505050905090565b600260075403610f36576040517f08c379a0000000000000000000000000000000000000000000000000000000008152600401610f2d90612f59565b60405180910390fd5b6002600781905550600c60009054906101000a900460ff16610f8d576040517f08c379a0000000000000000000000000000000000000000000000000000000008152600401610f8490612fc5565b60405180910390fd5b60085481610f9b9190613014565b3414610fdc576040517f08c379a0000000000000000000000000000000000000000000000000000000008152600401610fd3906130ba565b60405180910390fd5b600a5481600954610fed91906130da565b111561102e576040517f08c379a00000000000000000000000000000000000000000000000000000000081526004016110259061317c565b60405180910390fd5b600b5481600e60003373ffffffffffffffffffffffffffffffffffffffff1673ffffffffffffffffffffffffffffffffffffffff1681526020019081526020016000205461107c91906130da565b11156110bd576040517f08c379a00000000000000000000000000000000000000000000000000000000081526004016110b4906131e8565b60405180910390fd5b80600e60003373ffffffffffffffffffffffffffffffffffffffff1673ffffffffffffffffffffffffffffffffffffffff1681526020019081526020016000205461110891906130da565b600e60003373ffffffffffffffffffffffffffffffffffffffff1673ffffffffffffffffffffffffffffffffffffffff1681526020019081526020016000208190555060005b8181101561119f576000600160095461116791906130da565b90506009600081548092919061117c90613208565b919050555061118b33826119d1565b50808061119790613208565b91505061114e565b50600160078190555050565b6111bd6111b6611506565b83836119ef565b5050565b6111d26111cc611506565b836115c7565b611211576040517f08c379a000000000000000000000000000000000000000000000000000000000815260040161120890612a24565b60405180910390fd5b61121d84848484611b5b565b50505050565b606061122e8261149a565b61126d576040517f08c379a00000000000000000000000000000000000000000000000000000000081526004016112649061329c565b60405180910390fd5b600d61127883611bb7565b6040516020016112899291906133c7565b6040516020818303038152906040529050919050565b600a5481565b6000600560008473ffffffffffffffffffffffffffffffffffffffff1673ffffffffffffffffffffffffffffffffffffffff16815260200190815260200160002060008373ffffffffffffffffffffffffffffffffffffffff1673ffffffffffffffffffffffffffffffffffffffff16815260200190815260200160002060009054906101000a900460ff16905092915050565b611341611506565b73ffffffffffffffffffffffffffffffffffffffff1661135f610da3565b73ffffffffffffffffffffffffffffffffffffffff16146113b5576040517f08c379a00000000000000000000000000000000000000000000000000000000081526004016113ac90612a90565b60405180910390fd5b600073ffffffffffffffffffffffffffffffffffffffff168173ffffffffffffffffffffffffffffffffffffffff1603611424576040517f08c379a000000000000000000000000000000000000000000000000000000000815260040161141b90613468565b60405180910390fd5b61142d8161190b565b50565b60007f01ffc9a7000000000000000000000000000000000000000000000000000000007bffffffffffffffffffffffffffffffffffffffffffffffffffffffff1916827bffffffffffffffffffffffffffffffffffffffffffffffffffffffff1916149050919050565b60008073ffffffffffffffffffffffffffffffffffffffff166002600084815260200190815260200160002060009054906101000a900473ffffffffffffffffffffffffffffffffffffffff1673ffffffffffffffffffffffffffffffffffffffff1614159050919050565b600033905090565b816004600083815260200190815260200160002060006101000a81548173ffffffffffffffffffffffffffffffffffffffff021916908373ffffffffffffffffffffffffffffffffffffffff160217905550808273ffffffffffffffffffffffffffffffffffffffff1661158183610b14565b73ffffffffffffffffffffffffffffffffffffffff167f8c5be1e5ebec7d5bd14f71427d1e84f3dd0314c0f7b2291e5b200ac8c7c3b92560405160405180910390a45050565b60006115d28261149a565b611611576040517f08c379a0000000000000000000000000000000000000000000000000000000008152600401611608906134fa565b60405180910390fd5b600061161c83610b14565b90508073ffffffffffffffffffffffffffffffffffffffff168473ffffffffffffffffffffffffffffffffffffffff16148061165e575061165d81856112a5565b5b8061169c57508373ffffffffffffffffffffffffffffffffffffffff16611684846107a2565b73ffffffffffffffffffffffffffffffffffffffff16145b91505092915050565b8273ffffffffffffffffffffffffffffffffffffffff166116c582610b14565b73ffffffffffffffffffffffffffffffffffffffff161461171b576040517f08c379a00000000000000000000000000000000000000000000000000000000081526004016117129061358c565b60405180910390fd5b600073ffffffffffffffffffffffffffffffffffffffff168273ffffffffffffffffffffffffffffffffffffffff160361178a576040517f08c379a00000000000000000000000000000000000000000000000000000000081526004016117819061361e565b60405180910390fd5b611795838383611d17565b6117a060008261150e565b6001600360008573ffffffffffffffffffffffffffffffffffffffff1673ffffffffffffffffffffffffffffffffffffffff16815260200190815260200160002060008282546117f0919061363e565b925050819055506001600360008473ffffffffffffffffffffffffffffffffffffffff1673ffffffffffffffffffffffffffffffffffffffff168152602001908152602001600020600082825461184791906130da565b92505081905550816002600083815260200190815260200160002060006101000a81548173ffffffffffffffffffffffffffffffffffffffff021916908373ffffffffffffffffffffffffffffffffffffffff160217905550808273ffffffffffffffffffffffffffffffffffffffff168473ffffffffffffffffffffffffffffffffffffffff167fddf252ad1be2c89b69c2b068fc378daa952ba7f163c4a11628f55a4df523b3ef60405160405180910390a4611906838383611d1c565b505050565b6000600660009054906101000a900473ffffffffffffffffffffffffffffffffffffffff16905081600660006101000a81548173ffffffffffffffffffffffffffffffffffffffff021916908373ffffffffffffffffffffffffffffffffffffffff1602179055508173ffffffffffffffffffffffffffffffffffffffff168173ffffffffffffffffffffffffffffffffffffffff167f8be0079c531659141344cd1fd0a4f28419497f9722a3daafe3b4186f6b6457e060405160405180910390a35050565b6119eb828260405180602001604052806000815250611d21565b5050565b8173ffffffffffffffffffffffffffffffffffffffff168373ffffffffffffffffffffffffffffffffffffffff1603611a5d576040517f08c379a0000000000000000000000000000000000000000000000000000000008152600401611a54906136be565b60405180910390fd5b80600560008573ffffffffffffffffffffffffffffffffffffffff1673ffffffffffffffffffffffffffffffffffffffff16815260200190815260200160002060008473ffffffffffffffffffffffffffffffffffffffff1673ffffffffffffffffffffffffffffffffffffffff16815260200190815260200160002060006101000a81548160ff0219169083151502179055508173ffffffffffffffffffffffffffffffffffffffff168373ffffffffffffffffffffffffffffffffffffffff167f17307eab39ab6107e8899845ad3d59bd9653f200f220920489ca2b5937696c3183604051611b4e919061211a565b60405180910390a3505050565b611b668484846116a5565b611b7284848484611d7c565b611bb1576040517f08c379a0000000000000000000000000000000000000000000000000000000008152600401611ba890613750565b60405180910390fd5b50505050565b606060008203611bfe576040518060400160405280600181526020017f30000000000000000000000000000000000000000000000000000000000000008152509050611d12565b600082905060005b60008214611c30578080611c1990613208565b915050600a82611c29919061379f565b9150611c06565b60008167ffffffffffffffff811115611c4c57611c4b6125ae565b5b6040519080825280601f01601f191660200182016040528015611c7e5781602001600182028036833780820191505090505b5090505b60008514611d0b57600182611c97919061363e565b9150600a85611ca691906137d0565b6030611cb291906130da565b60f81b818381518110611cc857611cc7613801565b5b60200101907effffffffffffffffffffffffffffffffffffffffffffffffffffffffffffff1916908160001a905350600a85611d04919061379f565b9450611c82565b8093505050505b919050565b505050565b505050565b611d2b8383611f03565b611d386000848484611d7c565b611d77576040517f08c379a0000000000000000000000000000000000000000000000000000000008152600401611d6e90613750565b60405180910390fd5b505050565b6000611d9d8473ffffffffffffffffffffffffffffffffffffffff166120dc565b15611ef6578373ffffffffffffffffffffffffffffffffffffffff1663150b7a02611dc6611506565b8786866040518563ffffffff1660e01b8152600401611de89493929190613885565b6020604051808303816000875af1925050508015611e2457506040513d601f19601f82011682018060405250810190611e2191906138e6565b60015b611ea6573d8060008114611e54576040519150601f19603f3d011682016040523d82523d6000602084013e611e59565b606091505b506000815103611e9e576040517f08c379a0000000000000000000000000000000000000000000000000000000008152600401611e9590613750565b60405180910390fd5b805181602001fd5b63150b7a0260e01b7bffffffffffffffffffffffffffffffffffffffffffffffffffffffff1916817bffffffffffffffffffffffffffffffffffffffffffffffffffffffff191614915050611efb565b600190505b949350505050565b600073ffffffffffffffffffffffffffffffffffffffff168273ffffffffffffffffffffffffffffffffffffffff1603611f72576040517f08c379a0000000000000000000000000000000000000000000000000000000008152600401611f699061395f565b60405180910390fd5b611f7b8161149a565b15611fbb576040517f08c379a0000000000000000000000000000000000000000000000000000000008152600401611fb2906139cb565b60405180910390fd5b611fc760008383611d17565b6001600360008473ffffffffffffffffffffffffffffffffffffffff1673ffffffffffffffffffffffffffffffffffffffff168152602001908152602001600020600082825461201791906130da565b92505081905550816002600083815260200190815260200160002060006101000a81548173ffffffffffffffffffffffffffffffffffffffff021916908373ffffffffffffffffffffffffffffffffffffffff160217905550808273ffffffffffffffffffffffffffffffffffffffff16600073ffffffffffffffffffffffffffffffffffffffff167fddf252ad1be2c89b69c2b068fc378daa952ba7f163c4a11628f55a4df523b3ef60405160405180910390a46120d860008383611d1c565b5050565b6000808273ffffffffffffffffffffffffffffffffffffffff163b119050919050565b60008115159050919050565b612114816120ff565b82525050565b600060208201905061212f600083018461210b565b92915050565b6000604051905090565b600080fd5b600080fd5b60007fffffffff0000000000000000000000000000000000000000000000000000000082169050919050565b61217e81612149565b811461218957600080fd5b50565b60008135905061219b81612175565b92915050565b6000602082840312156121b7576121b661213f565b5b60006121c58482850161218c565b91505092915050565b600081519050919050565b600082825260208201905092915050565b60005b838110156122085780820151818401526020810190506121ed565b83811115612217576000848401525b50505050565b6000601f19601f8301169050919050565b6000612239826121ce565b61224381856121d9565b93506122538185602086016121ea565b61225c8161221d565b840191505092915050565b60006020820190508181036000830152612281818461222e565b905092915050565b6000819050919050565b61229c81612289565b81146122a757600080fd5b50565b6000813590506122b981612293565b92915050565b6000602082840312156122d5576122d461213f565b5b60006122e3848285016122aa565b91505092915050565b600073ffffffffffffffffffffffffffffffffffffffff82169050919050565b6000612317826122ec565b9050919050565b6123278161230c565b82525050565b6000602082019050612342600083018461231e565b92915050565b6123518161230c565b811461235c57600080fd5b50565b60008135905061236e81612348565b92915050565b6000806040838503121561238b5761238a61213f565b5b60006123998582860161235f565b92505060206123aa858286016122aa565b9150509250929050565b6000602082840312156123ca576123c961213f565b5b60006123d88482850161235f565b91505092915050565b6123ea81612289565b82525050565b600060208201905061240560008301846123e1565b92915050565b6000806000606084860312156124245761242361213f565b5b60006124328682870161235f565b93505060206124438682870161235f565b9250506040612454868287016122aa565b9150509250925092565b612467816120ff565b811461247257600080fd5b50565b6000813590506124848161245e565b92915050565b6000602082840312156124a05761249f61213f565b5b60006124ae84828501612475565b91505092915050565b600080fd5b600080fd5b600080fd5b60008083601f8401126124dc576124db6124b7565b5b8235905067ffffffffffffffff8111156124f9576124f86124bc565b5b602083019150836001820283011115612515576125146124c1565b5b9250929050565b600080602083850312156125335761253261213f565b5b600083013567ffffffffffffffff81111561255157612550612144565b5b61255d858286016124c6565b92509250509250929050565b600080604083850312156125805761257f61213f565b5b600061258e8582860161235f565b925050602061259f85828601612475565b9150509250929050565b600080fd5b7f4e487b7100000000000000000000000000000000000000000000000000000000600052604160045260246000fd5b6125e68261221d565b810181811067ffffffffffffffff82111715612605576126046125ae565b5b80604052505050565b6000612618612135565b905061262482826125dd565b919050565b600067ffffffffffffffff821115612644576126436125ae565b5b61264d8261221d565b9050602081019050919050565b82818337600083830152505050565b600061267c61267784612629565b61260e565b905082815260208101848484011115612698576126976125a9565b5b6126a384828561265a565b509392505050565b600082601f8301126126c0576126bf6124b7565b5b81356126d0848260208601612669565b91505092915050565b600080600080608085870312156126f3576126f261213f565b5b60006127018782880161235f565b94505060206127128782880161235f565b9350506040612723878288016122aa565b925050606085013567ffffffffffffffff81111561274457612743612144565b5b612750878288016126ab565b91505092959194509250565b600080604083850312156127735761277261213f565b5b60006127818582860161235f565b92505060206127928582860161235f565b9150509250929050565b7f4e487b7100000000000000000000000000000000000000000000000000000000600052602260045260246000fd5b600060028204905060018216806127e357607f821691505b6020821081036127f6576127f561279c565b5b50919050565b7f4552433732313a20617070726f76656420717565727920666f72206e6f6e657860008201527f697374656e7420746f6b656e0000000000000000000000000000000000000000602082015250565b6000612858602c836121d9565b9150612863826127fc565b604082019050919050565b600060208201905081810360008301526128878161284b565b9050919050565b7f4552433732313a20617070726f76616c20746f2063757272656e74206f776e6560008201527f7200000000000000000000000000000000000000000000000000000000000000602082015250565b60006128ea6021836121d9565b91506128f58261288e565b604082019050919050565b60006020820190508181036000830152612919816128dd565b9050919050565b7f4552433732313a20617070726f76652063616c6c6572206973206e6f74206f7760008201527f6e6572206e6f7220617070726f76656420666f7220616c6c0000000000000000602082015250565b600061297c6038836121d9565b915061298782612920565b604082019050919050565b600060208201905081810360008301526129ab8161296f565b9050919050565b7f4552433732313a207472616e736665722063616c6c6572206973206e6f74206f60008201527f776e6572206e6f7220617070726f766564000000000000000000000000000000602082015250565b6000612a0e6031836121d9565b9150612a19826129b2565b604082019050919050565b60006020820190508181036000830152612a3d81612a01565b9050919050565b7f4f776e61626c653a2063616c6c6572206973206e6f7420746865206f776e6572600082015250565b6000612a7a6020836121d9565b9150612a8582612a44565b602082019050919050565b60006020820190508181036000830152612aa981612a6d565b9050919050565b600081905092915050565b50565b6000612acb600083612ab0565b9150612ad682612abb565b600082019050919050565b6000612aec82612abe565b9150819050919050565b7f7769746864726177206661696c65640000000000000000000000000000000000600082015250565b6000612b2c600f836121d9565b9150612b3782612af6565b602082019050919050565b60006020820190508181036000830152612b5b81612b1f565b9050919050565b7f4552433732313a206f776e657220717565727920666f72206e6f6e657869737460008201527f656e7420746f6b656e0000000000000000000000000000000000000000000000602082015250565b6000612bbe6029836121d9565b9150612bc982612b62565b604082019050919050565b60006020820190508181036000830152612bed81612bb1565b9050919050565b7f4552433732313a2062616c616e636520717565727920666f7220746865207a6560008201527f726f206164647265737300000000000000000000000000000000000000000000602082015250565b6000612c50602a836121d9565b9150612c5b82612bf4565b604082019050919050565b60006020820190508181036000830152612c7f81612c43565b9050919050565b600082905092915050565b60008190508160005260206000209050919050565b60006020601f8301049050919050565b600082821b905092915050565b600060088302612cf37fffffffffffffffffffffffffffffffffffffffffffffffffffffffffffffffff82612cb6565b612cfd8683612cb6565b95508019841693508086168417925050509392505050565b6000819050919050565b6000612d3a612d35612d3084612289565b612d15565b612289565b9050919050565b6000819050919050565b612d5483612d1f565b612d68612d6082612d41565b848454612cc3565b825550505050565b600090565b612d7d612d70565b612d88818484612d4b565b505050565b5b81811015612dac57612da1600082612d75565b600181019050612d8e565b5050565b601f821115612df157612dc281612c91565b612dcb84612ca6565b81016020851015612dda578190505b612dee612de685612ca6565b830182612d8d565b50505b505050565b600082821c905092915050565b6000612e1460001984600802612df6565b1980831691505092915050565b6000612e2d8383612e03565b9150826002028217905092915050565b612e478383612c86565b67ffffffffffffffff811115612e6057612e5f6125ae565b5b612e6a82546127cb565b612e75828285612db0565b6000601f831160018114612ea45760008415612e92578287013590505b612e9c8582612e21565b865550612f04565b601f198416612eb286612c91565b60005b82811015612eda57848901358255600182019150602085019450602081019050612eb5565b86831015612ef75784890135612ef3601f891682612e03565b8355505b6001600288020188555050505b50505050505050565b7f5265656e7472616e637947756172643a207265656e7472616e742063616c6c00600082015250565b6000612f43601f836121d9565b9150612f4e82612f0d565b602082019050919050565b60006020820190508181036000830152612f7281612f36565b9050919050565b7f6d696e74696e67206e6f7420656e61626c656400000000000000000000000000600082015250565b6000612faf6013836121d9565b9150612fba82612f79565b602082019050919050565b60006020820190508181036000830152612fde81612fa2565b9050919050565b7f4e487b7100000000000000000000000000000000000000000000000000000000600052601160045260246000fd5b600061301f82612289565b915061302a83612289565b9250817fffffffffffffffffffffffffffffffffffffffffffffffffffffffffffffffff048311821515161561306357613062612fe5565b5b828202905092915050565b7f77726f6e67206d696e742076616c756500000000000000000000000000000000600082015250565b60006130a46010836121d9565b91506130af8261306e565b602082019050919050565b600060208201905081810360008301526130d381613097565b9050919050565b60006130e582612289565b91506130f083612289565b9250827fffffffffffffffffffffffffffffffffffffffffffffffffffffffffffffffff0382111561312557613124612fe5565b5b828201905092915050565b7f736f6c64204f7574000000000000000000000000000000000000000000000000600082015250565b60006131666008836121d9565b915061317182613130565b602082019050919050565b6000602082019050818103600083015261319581613159565b9050919050565b7f657863656564206d61782077616c6c6574000000000000000000000000000000600082015250565b60006131d26011836121d9565b91506131dd8261319c565b602082019050919050565b60006020820190508181036000830152613201816131c5565b9050919050565b600061321382612289565b91507fffffffffffffffffffffffffffffffffffffffffffffffffffffffffffffffff820361324557613244612fe5565b5b600182019050919050565b7f546f6b656e20646f6573206e6f74206578697374202100000000000000000000600082015250565b60006132866016836121d9565b915061329182613250565b602082019050919050565b600060208201905081810360008301526132b581613279565b9050919050565b600081905092915050565b600081546132d4816127cb565b6132de81866132bc565b945060018216600081146132f9576001811461330e57613341565b60ff1983168652811515820286019350613341565b61331785612c91565b60005b838110156133395781548189015260018201915060208101905061331a565b838801955050505b50505092915050565b6000613355826121ce565b61335f81856132bc565b935061336f8185602086016121ea565b80840191505092915050565b7f2e6a736f6e000000000000000000000000000000000000000000000000000000600082015250565b60006133b16005836132bc565b91506133bc8261337b565b600582019050919050565b60006133d382856132c7565b91506133df828461334a565b91506133ea826133a4565b91508190509392505050565b7f4f776e61626c653a206e6577206f776e657220697320746865207a65726f206160008201527f6464726573730000000000000000000000000000000000000000000000000000602082015250565b60006134526026836121d9565b915061345d826133f6565b604082019050919050565b6000602082019050818103600083015261348181613445565b9050919050565b7f4552433732313a206f70657261746f7220717565727920666f72206e6f6e657860008201527f697374656e7420746f6b656e0000000000000000000000000000000000000000602082015250565b60006134e4602c836121d9565b91506134ef82613488565b604082019050919050565b60006020820190508181036000830152613513816134d7565b9050919050565b7f4552433732313a207472616e736665722066726f6d20696e636f72726563742060008201527f6f776e6572000000000000000000000000000000000000000000000000000000602082015250565b60006135766025836121d9565b91506135818261351a565b604082019050919050565b600060208201905081810360008301526135a581613569565b9050919050565b7f4552433732313a207472616e7366657220746f20746865207a65726f2061646460008201527f7265737300000000000000000000000000000000000000000000000000000000602082015250565b60006136086024836121d9565b9150613613826135ac565b604082019050919050565b60006020820190508181036000830152613637816135fb565b9050919050565b600061364982612289565b915061365483612289565b92508282101561366757613666612fe5565b5b828203905092915050565b7f4552433732313a20617070726f766520746f2063616c6c657200000000000000600082015250565b60006136a86019836121d9565b91506136b382613672565b602082019050919050565b600060208201905081810360008301526136d78161369b565b9050919050565b7f4552433732313a207472616e7366657220746f206e6f6e20455243373231526560008201527f63656976657220696d706c656d656e7465720000000000000000000000000000602082015250565b600061373a6032836121d9565b9150613745826136de565b604082019050919050565b600060208201905081810360008301526137698161372d565b9050919050565b7f4e487b7100000000000000000000000000000000000000000000000000000000600052601260045260246000fd5b60006137aa82612289565b91506137b583612289565b9250826137c5576137c4613770565b5b828204905092915050565b60006137db82612289565b91506137e683612289565b9250826137f6576137f5613770565b5b828206905092915050565b7f4e487b7100000000000000000000000000000000000000000000000000000000600052603260045260246000fd5b600081519050919050565b600082825260208201905092915050565b600061385782613830565b613861818561383b565b93506138718185602086016121ea565b61387a8161221d565b840191505092915050565b600060808201905061389a600083018761231e565b6138a7602083018661231e565b6138b460408301856123e1565b81810360608301526138c6818461384c565b905095945050505050565b6000815190506138e081612175565b92915050565b6000602082840312156138fc576138fb61213f565b5b600061390a848285016138d1565b91505092915050565b7f4552433732313a206d696e7420746f20746865207a65726f2061646472657373600082015250565b60006139496020836121d9565b915061395482613913565b602082019050919050565b600060208201905081810360008301526139788161393c565b9050919050565b7f4552433732313a20746f6b656e20616c7265616479206d696e74656400000000600082015250565b60006139b5601c836121d9565b91506139c08261397f565b602082019050919050565b600060208201905081810360008301526139e4816139a8565b905091905056fea2646970667358221220de56f23c1f7452288a69f0be34eca135db4f6e056650e436fe2352f0c556695864736f6c634300080f0033",
  "immutableReferences": {},
  "source": "// SPDX-License-Identifier: MIT\npragma solidity ^0.8.0;\nimport \"@openzeppelin/contracts/token/ERC721/ERC721.sol\";\nimport \"@openzeppelin/contracts/access/Ownable.sol\";\nimport \"@openzeppelin/contracts/security/ReentrancyGuard.sol\";\n\ncontract DapDogoNFT is ERC721 ,Ownable ,ReentrancyGuard\n{\n  uint256 public mintPrice;\n  uint256 public totalSupply;\n  uint256 public maxSupply;\n  uint256 public maxPerWallet;\n  bool public isPublicMintEnabled;\n  string internal baseURI;\n  mapping(address=> uint256) public walletMint;\n\n\n  constructor() payable ERC721(\"DapDogo\",\"DADO\"){\n    mintPrice=0.1 ether;\n    totalSupply=0;\n    maxSupply=1000;\n    maxPerWallet=5;\n    // set wallet withdrawal address\n  }\n\n  function setPublicMintEnabled(bool _isPublicMintEnabled) external onlyOwner{\n\n    isPublicMintEnabled=_isPublicMintEnabled;\n  }\n\n\n  function setBaseTokenUri(string calldata _baseURI) external onlyOwner{\n    baseURI = _baseURI;\n  }\n\n  function tokenURI(uint256 _tokenId) public view override returns (string memory){\n    require(_exists(_tokenId),\"Token does not exist !\");\n    return string(abi.encodePacked(baseURI, Strings.toString(_tokenId),\".json\"));\n  }\n\n  function withdraw() external onlyOwner{\n    (bool success,)= owner().call{value:address(this).balance}(\"\");\n    require(success,\"withdraw failed\");\n  }\n\n\n  function mint(uint256 _quantity) public payable nonReentrant \n  {\n    require(isPublicMintEnabled,\"minting not enabled\");\n    require(msg.value == _quantity* mintPrice,\"wrong mint value\");\n    require(totalSupply + _quantity <= maxSupply,\"sold Out\");\n    require(walletMint[msg.sender] + _quantity <= maxPerWallet,\"exceed max wallet\");\n\n    walletMint[msg.sender]= walletMint[msg.sender] + (_quantity);\n\n    for (uint256 i=0;i<_quantity;i++){\n      uint256 newTokenId = totalSupply +1;\n      totalSupply++;\n      _safeMint(msg.sender,newTokenId);\n    }\n\n\n  }\n\n\n\n\n}",
  "sourcePath": "C:\\Users\\aryan\\blockchain\\NFT_Auction\\contracts\\DapDogoNFT.sol",
  "compiler": {
    "name": "solc",
    "version": "0.8.15+commit.e14f2714.Emscripten.clang"
  },
  "schemaVersion": "3.4.4",
  "updatedAt": "2022-06-22T18:27:36.636Z",
  "networkType": "ethereum",
  "devdoc": {
    "kind": "dev",
    "methods": {
      "approve(address,uint256)": {
        "details": "See {IERC721-approve}."
      },
      "balanceOf(address)": {
        "details": "See {IERC721-balanceOf}."
      },
      "getApproved(uint256)": {
        "details": "See {IERC721-getApproved}."
      },
      "isApprovedForAll(address,address)": {
        "details": "See {IERC721-isApprovedForAll}."
      },
      "name()": {
        "details": "See {IERC721Metadata-name}."
      },
      "owner()": {
        "details": "Returns the address of the current owner."
      },
      "ownerOf(uint256)": {
        "details": "See {IERC721-ownerOf}."
      },
      "renounceOwnership()": {
        "details": "Leaves the contract without owner. It will not be possible to call `onlyOwner` functions anymore. Can only be called by the current owner. NOTE: Renouncing ownership will leave the contract without an owner, thereby removing any functionality that is only available to the owner."
      },
      "safeTransferFrom(address,address,uint256)": {
        "details": "See {IERC721-safeTransferFrom}."
      },
      "safeTransferFrom(address,address,uint256,bytes)": {
        "details": "See {IERC721-safeTransferFrom}."
      },
      "setApprovalForAll(address,bool)": {
        "details": "See {IERC721-setApprovalForAll}."
      },
      "supportsInterface(bytes4)": {
        "details": "See {IERC165-supportsInterface}."
      },
      "symbol()": {
        "details": "See {IERC721Metadata-symbol}."
      },
      "transferFrom(address,address,uint256)": {
        "details": "See {IERC721-transferFrom}."
      },
      "transferOwnership(address)": {
        "details": "Transfers ownership of the contract to a new account (`newOwner`). Can only be called by the current owner."
      }
    },
    "version": 1
  },
  "userdoc": {
    "kind": "user",
    "methods": {},
    "version": 1
  }
}