{
  "contractName": "NFTAuction",
  "abi": [
    {
      "inputs": [],
      "stateMutability": "nonpayable",
      "type": "constructor"
    },
    {
      "anonymous": false,
      "inputs": [
        {
          "indexed": true,
          "internalType": "address",
          "name": "nftAddress",
          "type": "address"
        },
        {
          "indexed": true,
          "internalType": "uint256",
          "name": "tokenNumber",
          "type": "uint256"
        },
        {
          "indexed": true,
          "internalType": "address",
          "name": "ownerofToken",
          "type": "address"
        }
      ],
      "name": "AuctionFinalized",
      "type": "event"
    },
    {
      "anonymous": false,
      "inputs": [
        {
          "indexed": true,
          "internalType": "address",
          "name": "nftAddress",
          "type": "address"
        },
        {
          "indexed": true,
          "internalType": "uint256",
          "name": "tokenNumber",
          "type": "uint256"
        },
        {
          "indexed": true,
          "internalType": "address",
          "name": "ownerofToken",
          "type": "address"
        },
        {
          "indexed": false,
          "internalType": "uint256",
          "name": "price",
          "type": "uint256"
        },
        {
          "indexed": false,
          "internalType": "uint256",
          "name": "time",
          "type": "uint256"
        }
      ],
      "name": "AuctionStarted",
      "type": "event"
    },
    {
      "anonymous": false,
      "inputs": [
        {
          "indexed": true,
          "internalType": "address",
          "name": "nftAddress",
          "type": "address"
        },
        {
          "indexed": true,
          "internalType": "uint256",
          "name": "tokenNumber",
          "type": "uint256"
        },
        {
          "indexed": true,
          "internalType": "address",
          "name": "ownerofToken",
          "type": "address"
        },
        {
          "indexed": false,
          "internalType": "address",
          "name": "bidder",
          "type": "address"
        },
        {
          "indexed": false,
          "internalType": "uint256",
          "name": "bindingBid",
          "type": "uint256"
        },
        {
          "indexed": false,
          "internalType": "uint256",
          "name": "time",
          "type": "uint256"
        },
        {
          "indexed": false,
          "internalType": "uint256",
          "name": "price",
          "type": "uint256"
        }
      ],
      "name": "BidMade",
      "type": "event"
    },
    {
      "inputs": [
        {
          "internalType": "address",
          "name": "",
          "type": "address"
        },
        {
          "internalType": "uint256",
          "name": "",
          "type": "uint256"
        }
      ],
      "name": "AuctonableNFT",
      "outputs": [
        {
          "internalType": "address payable",
          "name": "owner",
          "type": "address"
        },
        {
          "internalType": "uint256",
          "name": "highestBindingBid",
          "type": "uint256"
        },
        {
          "internalType": "address",
          "name": "highestBidder",
          "type": "address"
        },
        {
          "internalType": "uint256",
          "name": "startingTime",
          "type": "uint256"
        },
        {
          "internalType": "uint256",
          "name": "starting_price",
          "type": "uint256"
        },
        {
          "internalType": "uint256",
          "name": "endingTime",
          "type": "uint256"
        },
        {
          "internalType": "enum NFTAuction.state",
          "name": "auction",
          "type": "uint8"
        }
      ],
      "stateMutability": "view",
      "type": "function",
      "constant": true
    },
    {
      "inputs": [
        {
          "internalType": "address",
          "name": "_contractAddress",
          "type": "address"
        },
        {
          "internalType": "uint256",
          "name": "tokenNumber",
          "type": "uint256"
        },
        {
          "internalType": "uint256",
          "name": "price",
          "type": "uint256"
        },
        {
          "internalType": "uint256",
          "name": "_time",
          "type": "uint256"
        }
      ],
      "name": "startAuction",
      "outputs": [],
      "stateMutability": "nonpayable",
      "type": "function"
    },
    {
      "inputs": [
        {
          "internalType": "address",
          "name": "_contractAddress",
          "type": "address"
        },
        {
          "internalType": "uint256",
          "name": "tokenNumber",
          "type": "uint256"
        }
      ],
      "name": "enterBid",
      "outputs": [
        {
          "internalType": "bool",
          "name": "",
          "type": "bool"
        }
      ],
      "stateMutability": "payable",
      "type": "function",
      "payable": true
    },
    {
      "inputs": [
        {
          "internalType": "address",
          "name": "_contractAddress",
          "type": "address"
        },
        {
          "internalType": "uint256",
          "name": "tokenNumber",
          "type": "uint256"
        }
      ],
      "name": "cancelAuction",
      "outputs": [
        {
          "internalType": "bool",
          "name": "",
          "type": "bool"
        }
      ],
      "stateMutability": "nonpayable",
      "type": "function"
    },
    {
      "inputs": [
        {
          "internalType": "address",
          "name": "_contractAddress",
          "type": "address"
        },
        {
          "internalType": "uint256",
          "name": "tokenNumber",
          "type": "uint256"
        }
      ],
      "name": "finalizeAuction",
      "outputs": [
        {
          "internalType": "bool",
          "name": "",
          "type": "bool"
        }
      ],
      "stateMutability": "nonpayable",
      "type": "function"
    },
    {
      "inputs": [
        {
          "internalType": "address",
          "name": "_contractAddress",
          "type": "address"
        },
        {
          "internalType": "uint256",
          "name": "tokenNumber",
          "type": "uint256"
        }
      ],
      "name": "withdraw",
      "outputs": [],
      "stateMutability": "nonpayable",
      "type": "function"
    },
    {
      "inputs": [],
      "name": "withdrawCommision",
      "outputs": [],
      "stateMutability": "nonpayable",
      "type": "function"
    },
    {
      "inputs": [],
      "name": "balance",
      "outputs": [
        {
          "internalType": "uint256",
          "name": "",
          "type": "uint256"
        }
      ],
      "stateMutability": "view",
      "type": "function",
      "constant": true
    }
  ],
  "bytecode": "0x608060405234801561001057600080fd5b5033600160006101000a81548173ffffffffffffffffffffffffffffffffffffffff021916908373ffffffffffffffffffffffffffffffffffffffff16021790555067016345785d8a00006000819055506127d5806100706000396000f3fe60806040526004361061007b5760003560e01c8063b69ef8a81161004e578063b69ef8a814610153578063c5471e0c1461017e578063d7f9094d146101c1578063f3fef3a3146101d85761007b565b80636890511614610080578063859b97fe146100bd5780639c166273146100fa578063a83900b514610123575b600080fd5b34801561008c57600080fd5b506100a760048036038101906100a29190611c86565b610201565b6040516100b49190611ce1565b60405180910390f35b3480156100c957600080fd5b506100e460048036038101906100df9190611c86565b610555565b6040516100f19190611ce1565b60405180910390f35b34801561010657600080fd5b50610121600480360381019061011c9190611cfc565b6106d0565b005b61013d60048036038101906101389190611c86565b6109bf565b60405161014a9190611ce1565b60405180910390f35b34801561015f57600080fd5b506101686111dd565b6040516101759190611d72565b60405180910390f35b34801561018a57600080fd5b506101a560048036038101906101a09190611c86565b611275565b6040516101b89796959493929190611e34565b60405180910390f35b3480156101cd57600080fd5b506101d6611311565b005b3480156101e457600080fd5b506101ff60048036038101906101fa9190611c86565b611454565b005b600082823373ffffffffffffffffffffffffffffffffffffffff168273ffffffffffffffffffffffffffffffffffffffff16636352211e836040518263ffffffff1660e01b81526004016102559190611d72565b602060405180830381865afa158015610272573d6000803e3d6000fd5b505050506040513d601f19601f820116820180604052508101906102969190611eb8565b73ffffffffffffffffffffffffffffffffffffffff16146102ec576040517f08c379a00000000000000000000000000000000000000000000000000000000081526004016102e390611f68565b60405180910390fd5b6000600360008773ffffffffffffffffffffffffffffffffffffffff1673ffffffffffffffffffffffffffffffffffffffff16815260200190815260200160002060008681526020019081526020016000209050600086905060028081111561035857610357611dbd565b5b8260080160009054906101000a900460ff16600281111561037c5761037b611dbd565b5b14806103bd57506001600281111561039757610396611dbd565b5b8260080160009054906101000a900460ff1660028111156103bb576103ba611dbd565b5b145b6103fc576040517f08c379a00000000000000000000000000000000000000000000000000000000081526004016103f390611ffa565b60405180910390fd5b610407828288611636565b600360008873ffffffffffffffffffffffffffffffffffffffff1673ffffffffffffffffffffffffffffffffffffffff1681526020019081526020016000206000878152602001908152602001600020600080820160006101000a81549073ffffffffffffffffffffffffffffffffffffffff021916905560018201600090556002820160006101000a81549073ffffffffffffffffffffffffffffffffffffffff02191690556004820160006104be9190611baf565b6005820160009055600682016000905560078201600090556008820160006101000a81549060ff021916905550503373ffffffffffffffffffffffffffffffffffffffff16868873ffffffffffffffffffffffffffffffffffffffff167fad7f9a73d89f3eff945dd8e19f632c0910152d07a7410889f30ff26be0aa1a0a60405160405180910390a4600194505050505092915050565b600082823373ffffffffffffffffffffffffffffffffffffffff168273ffffffffffffffffffffffffffffffffffffffff16636352211e836040518263ffffffff1660e01b81526004016105a99190611d72565b602060405180830381865afa1580156105c6573d6000803e3d6000fd5b505050506040513d601f19601f820116820180604052508101906105ea9190611eb8565b73ffffffffffffffffffffffffffffffffffffffff1614610640576040517f08c379a000000000000000000000000000000000000000000000000000000000815260040161063790611f68565b60405180910390fd5b6002600360008773ffffffffffffffffffffffffffffffffffffffff1673ffffffffffffffffffffffffffffffffffffffff168152602001908152602001600020600086815260200190815260200160002060080160006101000a81548160ff021916908360028111156106b7576106b6611dbd565b5b02179055506106c68585610201565b9250505092915050565b83833373ffffffffffffffffffffffffffffffffffffffff168273ffffffffffffffffffffffffffffffffffffffff16636352211e836040518263ffffffff1660e01b81526004016107229190611d72565b602060405180830381865afa15801561073f573d6000803e3d6000fd5b505050506040513d601f19601f820116820180604052508101906107639190611eb8565b73ffffffffffffffffffffffffffffffffffffffff16146107b9576040517f08c379a00000000000000000000000000000000000000000000000000000000081526004016107b090611f68565b60405180910390fd5b6000600360008873ffffffffffffffffffffffffffffffffffffffff1673ffffffffffffffffffffffffffffffffffffffff168152602001908152602001600020600087815260200190815260200160002090506000600281111561082157610820611dbd565b5b8160080160009054906101000a900460ff16600281111561084557610844611dbd565b5b14610885576040517f08c379a000000000000000000000000000000000000000000000000000000000815260040161087c90612066565b60405180910390fd5b338160000160006101000a81548173ffffffffffffffffffffffffffffffffffffffff021916908373ffffffffffffffffffffffffffffffffffffffff16021790555060008160080160006101000a81548160ff021916908360028111156108f0576108ef611dbd565b5b021790555043816005018190555084816006018190555061093261091f61199186611b5390919063ffffffff16565b8260050154611b6990919063ffffffff16565b81600701819055503373ffffffffffffffffffffffffffffffffffffffff16863373ffffffffffffffffffffffffffffffffffffffff167f2af5906e67c14cbb345228e87c0d2b7d89afb02caba9bfc0347f7b13588ac60d886109a06119918a611b5390919063ffffffff16565b6040516109ae929190612086565b60405180910390a450505050505050565b600082823373ffffffffffffffffffffffffffffffffffffffff168273ffffffffffffffffffffffffffffffffffffffff16636352211e836040518263ffffffff1660e01b8152600401610a139190611d72565b602060405180830381865afa158015610a30573d6000803e3d6000fd5b505050506040513d601f19601f82011682018060405250810190610a549190611eb8565b73ffffffffffffffffffffffffffffffffffffffff1603610aaa576040517f08c379a0000000000000000000000000000000000000000000000000000000008152600401610aa190612121565b60405180910390fd5b60003403610aed576040517f08c379a0000000000000000000000000000000000000000000000000000000008152600401610ae4906121b3565b60405180910390fd5b6000600360008773ffffffffffffffffffffffffffffffffffffffff1673ffffffffffffffffffffffffffffffffffffffff168152602001908152602001600020600086815260200190815260200160002090508060070154431015610b64578060080160009054906101000a900460ff16610b67565b60015b8160080160006101000a81548160ff02191690836002811115610b8d57610b8c611dbd565b5b021790555060016002811115610ba657610ba5611dbd565b5b8160080160009054906101000a900460ff166002811115610bca57610bc9611dbd565b5b03610c0a576040517f08c379a0000000000000000000000000000000000000000000000000000000008152600401610c019061221f565b60405180910390fd5b600280811115610c1d57610c1c611dbd565b5b8160080160009054906101000a900460ff166002811115610c4157610c40611dbd565b5b03610c81576040517f08c379a0000000000000000000000000000000000000000000000000000000008152600401610c789061228b565b60405180910390fd5b6000348260030160003373ffffffffffffffffffffffffffffffffffffffff1673ffffffffffffffffffffffffffffffffffffffff16815260200190815260200160002054610cd091906122da565b90506000808360030160008560020160009054906101000a900473ffffffffffffffffffffffffffffffffffffffff1673ffffffffffffffffffffffffffffffffffffffff1673ffffffffffffffffffffffffffffffffffffffff1681526020019081526020016000205414610dab578260030160008460020160009054906101000a900473ffffffffffffffffffffffffffffffffffffffff1673ffffffffffffffffffffffffffffffffffffffff1673ffffffffffffffffffffffffffffffffffffffff16815260200190815260200160002054610db1565b82600601545b905080821015610df6576040517f08c379a0000000000000000000000000000000000000000000000000000000008152600401610ded906123a2565b60405180910390fd5b60008360030160003373ffffffffffffffffffffffffffffffffffffffff1673ffffffffffffffffffffffffffffffffffffffff1681526020019081526020016000205403610ea55782600401339080600181540180825580915050600190039060005260206000200160009091909190916101000a81548173ffffffffffffffffffffffffffffffffffffffff021916908373ffffffffffffffffffffffffffffffffffffffff1602179055505b818360030160003373ffffffffffffffffffffffffffffffffffffffff1673ffffffffffffffffffffffffffffffffffffffff168152602001908152602001600020819055508260030160008460020160009054906101000a900473ffffffffffffffffffffffffffffffffffffffff1673ffffffffffffffffffffffffffffffffffffffff1673ffffffffffffffffffffffffffffffffffffffff168152602001908152602001600020548360030160003373ffffffffffffffffffffffffffffffffffffffff1673ffffffffffffffffffffffffffffffffffffffff168152602001908152602001600020541061104057610ff08360030160003373ffffffffffffffffffffffffffffffffffffffff1673ffffffffffffffffffffffffffffffffffffffff1681526020019081526020016000205460005483610feb91906122da565b611b7f565b8360010181905550338360020160006101000a81548173ffffffffffffffffffffffffffffffffffffffff021916908373ffffffffffffffffffffffffffffffffffffffff16021790555061110d565b6111046110996000548560030160003373ffffffffffffffffffffffffffffffffffffffff1673ffffffffffffffffffffffffffffffffffffffff16815260200190815260200160002054611b6990919063ffffffff16565b8460030160008660020160009054906101000a900473ffffffffffffffffffffffffffffffffffffffff1673ffffffffffffffffffffffffffffffffffffffff1673ffffffffffffffffffffffffffffffffffffffff16815260200190815260200160002054611b7f565b83600101819055505b8260000160009054906101000a900473ffffffffffffffffffffffffffffffffffffffff1673ffffffffffffffffffffffffffffffffffffffff16878973ffffffffffffffffffffffffffffffffffffffff167f9d81325cd8791e37099bf00038b79af9d9f198798245360d44d63c30df1a75623387600101546111b1600d6111a3438c60070154611b9990919063ffffffff16565b611b5390919063ffffffff16565b89600601546040516111c694939291906123c2565b60405180910390a460019550505050505092915050565b60003373ffffffffffffffffffffffffffffffffffffffff16600160009054906101000a900473ffffffffffffffffffffffffffffffffffffffff1673ffffffffffffffffffffffffffffffffffffffff161461126f576040517f08c379a000000000000000000000000000000000000000000000000000000000815260040161126690612479565b60405180910390fd5b47905090565b6003602052816000526040600020602052806000526040600020600091509150508060000160009054906101000a900473ffffffffffffffffffffffffffffffffffffffff16908060010154908060020160009054906101000a900473ffffffffffffffffffffffffffffffffffffffff16908060050154908060060154908060070154908060080160009054906101000a900460ff16905087565b3373ffffffffffffffffffffffffffffffffffffffff16600160009054906101000a900473ffffffffffffffffffffffffffffffffffffffff1673ffffffffffffffffffffffffffffffffffffffff16146113a1576040517f08c379a000000000000000000000000000000000000000000000000000000000815260040161139890612479565b60405180910390fd5b600060025410156113e7576040517f08c379a00000000000000000000000000000000000000000000000000000000081526004016113de906124e5565b60405180910390fd5b600160009054906101000a900473ffffffffffffffffffffffffffffffffffffffff1673ffffffffffffffffffffffffffffffffffffffff166108fc6002549081150290604051600060405180830381858888f19350505050158015611451573d6000803e3d6000fd5b50565b6000600360008473ffffffffffffffffffffffffffffffffffffffff1673ffffffffffffffffffffffffffffffffffffffff16815260200190815260200160002060008381526020019081526020016000209050600160028111156114bc576114bb611dbd565b5b8160080160009054906101000a900460ff1660028111156114e0576114df611dbd565b5b148061152057506002808111156114fa576114f9611dbd565b5b8160080160009054906101000a900460ff16600281111561151e5761151d611dbd565b5b145b61155f576040517f08c379a000000000000000000000000000000000000000000000000000000000815260040161155690612551565b60405180910390fd5b60008160030160003373ffffffffffffffffffffffffffffffffffffffff1673ffffffffffffffffffffffffffffffffffffffff1681526020019081526020016000205410611631573373ffffffffffffffffffffffffffffffffffffffff166108fc8260030160003373ffffffffffffffffffffffffffffffffffffffff1673ffffffffffffffffffffffffffffffffffffffff168152602001908152602001600020549081150290604051600060405180830381858888f1935050505015801561162f573d6000803e3d6000fd5b505b505050565b3373ffffffffffffffffffffffffffffffffffffffff168360000160009054906101000a900473ffffffffffffffffffffffffffffffffffffffff1673ffffffffffffffffffffffffffffffffffffffff16146116c8576040517f08c379a00000000000000000000000000000000000000000000000000000000081526004016116bf906125e3565b60405180910390fd5b60005b8360040180549050811015611b4d578360020160009054906101000a900473ffffffffffffffffffffffffffffffffffffffff1673ffffffffffffffffffffffffffffffffffffffff1684600401828154811061172b5761172a612603565b5b9060005260206000200160009054906101000a900473ffffffffffffffffffffffffffffffffffffffff1673ffffffffffffffffffffffffffffffffffffffff161480156117ae57506001600281111561178857611787611dbd565b5b8460080160009054906101000a900460ff1660028111156117ac576117ab611dbd565b5b145b15611a3157600061184d85600101548660030160008860040186815481106117d9576117d8612603565b5b9060005260206000200160009054906101000a900473ffffffffffffffffffffffffffffffffffffffff1673ffffffffffffffffffffffffffffffffffffffff1673ffffffffffffffffffffffffffffffffffffffff16815260200190815260200160002054611b9990919063ffffffff16565b905060006064600387600101546118649190612632565b61186e91906126bb565b90506000611889828860010154611b9990919063ffffffff16565b9050816002600082825461189d91906122da565b925050819055508660040184815481106118ba576118b9612603565b5b9060005260206000200160009054906101000a900473ffffffffffffffffffffffffffffffffffffffff1673ffffffffffffffffffffffffffffffffffffffff166108fc849081150290604051600060405180830381858888f1935050505015801561192a573d6000803e3d6000fd5b508660000160009054906101000a900473ffffffffffffffffffffffffffffffffffffffff1673ffffffffffffffffffffffffffffffffffffffff166108fc829081150290604051600060405180830381858888f19350505050158015611995573d6000803e3d6000fd5b508573ffffffffffffffffffffffffffffffffffffffff166342842e0e338960020160009054906101000a900473ffffffffffffffffffffffffffffffffffffffff16886040518463ffffffff1660e01b81526004016119f7939291906126ec565b600060405180830381600087803b158015611a1157600080fd5b505af1158015611a25573d6000803e3d6000fd5b50505050505050611b3a565b836004018181548110611a4757611a46612603565b5b9060005260206000200160009054906101000a900473ffffffffffffffffffffffffffffffffffffffff1673ffffffffffffffffffffffffffffffffffffffff166108fc856003016000876004018581548110611aa757611aa6612603565b5b9060005260206000200160009054906101000a900473ffffffffffffffffffffffffffffffffffffffff1673ffffffffffffffffffffffffffffffffffffffff1673ffffffffffffffffffffffffffffffffffffffff168152602001908152602001600020549081150290604051600060405180830381858888f19350505050158015611b38573d6000803e3d6000fd5b505b8080611b4590612723565b9150506116cb565b50505050565b60008183611b619190612632565b905092915050565b60008183611b7791906122da565b905092915050565b600081831115611b8f5781611b91565b825b905092915050565b60008183611ba7919061276b565b905092915050565b5080546000825590600052602060002090810190611bcd9190611bd0565b50565b5b80821115611be9576000816000905550600101611bd1565b5090565b600080fd5b600073ffffffffffffffffffffffffffffffffffffffff82169050919050565b6000611c1d82611bf2565b9050919050565b611c2d81611c12565b8114611c3857600080fd5b50565b600081359050611c4a81611c24565b92915050565b6000819050919050565b611c6381611c50565b8114611c6e57600080fd5b50565b600081359050611c8081611c5a565b92915050565b60008060408385031215611c9d57611c9c611bed565b5b6000611cab85828601611c3b565b9250506020611cbc85828601611c71565b9150509250929050565b60008115159050919050565b611cdb81611cc6565b82525050565b6000602082019050611cf66000830184611cd2565b92915050565b60008060008060808587031215611d1657611d15611bed565b5b6000611d2487828801611c3b565b9450506020611d3587828801611c71565b9350506040611d4687828801611c71565b9250506060611d5787828801611c71565b91505092959194509250565b611d6c81611c50565b82525050565b6000602082019050611d876000830184611d63565b92915050565b6000611d9882611bf2565b9050919050565b611da881611d8d565b82525050565b611db781611c12565b82525050565b7f4e487b7100000000000000000000000000000000000000000000000000000000600052602160045260246000fd5b60038110611dfd57611dfc611dbd565b5b50565b6000819050611e0e82611dec565b919050565b6000611e1e82611e00565b9050919050565b611e2e81611e13565b82525050565b600060e082019050611e49600083018a611d9f565b611e566020830189611d63565b611e636040830188611dae565b611e706060830187611d63565b611e7d6080830186611d63565b611e8a60a0830185611d63565b611e9760c0830184611e25565b98975050505050505050565b600081519050611eb281611c24565b92915050565b600060208284031215611ece57611ecd611bed565b5b6000611edc84828501611ea3565b91505092915050565b600082825260208201905092915050565b7f746f6b656e207265676973746572656420746f20646966666572656e7420616460008201527f6472657373000000000000000000000000000000000000000000000000000000602082015250565b6000611f52602583611ee5565b9150611f5d82611ef6565b604082019050919050565b60006020820190508181036000830152611f8181611f45565b9050919050565b7f536f727279212061756374696f6e206973207374696c6c206e6f7420636f6d7060008201527f6c65746564000000000000000000000000000000000000000000000000000000602082015250565b6000611fe4602583611ee5565b9150611fef82611f88565b604082019050919050565b6000602082019050818103600083015261201381611fd7565b9050919050565b7f616c72656164792072756e6e696e670000000000000000000000000000000000600082015250565b6000612050600f83611ee5565b915061205b8261201a565b602082019050919050565b6000602082019050818103600083015261207f81612043565b9050919050565b600060408201905061209b6000830185611d63565b6120a86020830184611d63565b9392505050565b7f4f776e6572206f6620746f6b656e2063616e206e6f742070617274696369706160008201527f7465000000000000000000000000000000000000000000000000000000000000602082015250565b600061210b602283611ee5565b9150612116826120af565b604082019050919050565b6000602082019050818103600083015261213a816120fe565b9050919050565b7f3020676976656e2021202c20706c656173652070726f766964652076616c696460008201527f2065746865722773000000000000000000000000000000000000000000000000602082015250565b600061219d602883611ee5565b91506121a882612141565b604082019050919050565b600060208201905081810360008301526121cc81612190565b9050919050565b7f41756374696f6e20456e64656400000000000000000000000000000000000000600082015250565b6000612209600d83611ee5565b9150612214826121d3565b602082019050919050565b60006020820190508181036000830152612238816121fc565b9050919050565b7f41756374696f6e20686173206265656e2063616e63656c656400000000000000600082015250565b6000612275601983611ee5565b91506122808261223f565b602082019050919050565b600060208201905081810360008301526122a481612268565b9050919050565b7f4e487b7100000000000000000000000000000000000000000000000000000000600052601160045260246000fd5b60006122e582611c50565b91506122f083611c50565b9250827fffffffffffffffffffffffffffffffffffffffffffffffffffffffffffffffff03821115612325576123246122ab565b5b828201905092915050565b7f626964206973206c657373207468656e207468652073656c6c696e672070726960008201527f6365000000000000000000000000000000000000000000000000000000000000602082015250565b600061238c602283611ee5565b915061239782612330565b604082019050919050565b600060208201905081810360008301526123bb8161237f565b9050919050565b60006080820190506123d76000830187611dae565b6123e46020830186611d63565b6123f16040830185611d63565b6123fe6060830184611d63565b95945050505050565b7f6f6e6c792061646d696e2063616e206163636573732074686973206d6574686f60008201527f6400000000000000000000000000000000000000000000000000000000000000602082015250565b6000612463602183611ee5565b915061246e82612407565b604082019050919050565b6000602082019050818103600083015261249281612456565b9050919050565b7f4e6f7468696e6720746f20776964687261776e00000000000000000000000000600082015250565b60006124cf601383611ee5565b91506124da82612499565b602082019050919050565b600060208201905081810360008301526124fe816124c2565b9050919050565b7f61756374696f6e2069732072756e6e696e670000000000000000000000000000600082015250565b600061253b601283611ee5565b915061254682612505565b602082019050919050565b6000602082019050818103600083015261256a8161252e565b9050919050565b7f6f6e6c79206f776e65722063616e20706572666f726d2074686973206f70657260008201527f6174696f6e000000000000000000000000000000000000000000000000000000602082015250565b60006125cd602583611ee5565b91506125d882612571565b604082019050919050565b600060208201905081810360008301526125fc816125c0565b9050919050565b7f4e487b7100000000000000000000000000000000000000000000000000000000600052603260045260246000fd5b600061263d82611c50565b915061264883611c50565b9250817fffffffffffffffffffffffffffffffffffffffffffffffffffffffffffffffff0483118215151615612681576126806122ab565b5b828202905092915050565b7f4e487b7100000000000000000000000000000000000000000000000000000000600052601260045260246000fd5b60006126c682611c50565b91506126d183611c50565b9250826126e1576126e061268c565b5b828204905092915050565b60006060820190506127016000830186611dae565b61270e6020830185611dae565b61271b6040830184611d63565b949350505050565b600061272e82611c50565b91507fffffffffffffffffffffffffffffffffffffffffffffffffffffffffffffffff82036127605761275f6122ab565b5b600182019050919050565b600061277682611c50565b915061278183611c50565b925082821015612794576127936122ab565b5b82820390509291505056fea26469706673582212209ba03ad0cda2781b9bfd768c63fa9d6465c4eb479be29da2f69dd4e9fb40c5e264736f6c634300080e0033",
  "immutableReferences": {},
  "source": "// SPDX-License-Identifier: MIT\r\npragma solidity ^0.8.0;\r\n\r\nimport \"@openzeppelin/contracts/token/ERC721/IERC721.sol\";\r\nimport \"@openzeppelin/contracts/utils/math/SafeMath.sol\";\r\n\r\ncontract NFTAuction {\r\n\r\n\r\n    uint256 incrementFactor; // increment factor to be added\r\n    address payable admin; // admin can retrieve commision fund\r\n    uint256 private commision; // commision of 3% to be collected on each auction\r\n     enum state {Started,Ended,Cancelled}  \r\n    using SafeMath for uint256;\r\n\r\n    struct  AuctionDetails {\r\n        address payable  owner ;   // owner of a nft\r\n        uint256   highestBindingBid; // selling price of artifact\r\n        address  highestBidder;   // address of highest bidder at a point in time        \r\n        mapping(address => uint)  bids;   // mapping containing bid for each participant\r\n        address payable []  auctionParticipant; // array for traversing through addresss\r\n        uint256 startingTime;  \r\n        uint256 starting_price;  \r\n        uint endingTime;\r\n        state  auction;\r\n    }\r\n\r\n\r\n    mapping(address=>mapping(uint256=>AuctionDetails)) public AuctonableNFT;   // auctioning of a token of a specific NFT\r\n\r\n\r\n     constructor() {\r\n        admin= payable(msg.sender);\r\n        incrementFactor= 0.1 ether;\r\n    }\r\n\r\n\r\n    modifier onlyOwner(address _contractAddress, uint256 tokenNumber){\r\n        require(IERC721(_contractAddress).ownerOf(tokenNumber)==msg.sender,\"token registered to different address\");\r\n        _;\r\n    }\r\n\r\n     modifier notOwner(address _contractAddress, uint256 tokenNumber){\r\n        require(IERC721(_contractAddress).ownerOf(tokenNumber)!=msg.sender,\"Owner of token can not participate\");\r\n        _;\r\n    }\r\n\r\n    modifier onlyAdmin{\r\n        require(admin==msg.sender,\"only admin can access this method\");\r\n        _;\r\n    }\r\n\r\n    //  modifier stateconstraint{\r\n    //     require(auction!=state.Ended,\"auction ended\");\r\n    //     require(auction!=state.Cancelled);\r\n    //     _;\r\n    // }\r\n\r\n\r\n    event AuctionStarted(address indexed nftAddress, uint256 indexed tokenNumber , address indexed ownerofToken,  uint256 price, uint256 time); \r\n    event BidMade(address indexed nftAddress, uint256 indexed tokenNumber ,address indexed ownerofToken ,address bidder, uint256 bindingBid, uint256 time, uint256 price);\r\n   // event AuctionCanceled (address indexed nftAddress , uint256 indexed tokenNumber, address indexed owner );\r\n    event AuctionFinalized (address indexed nftAddress, uint256 indexed tokenNumber , address indexed ownerofToken );\r\n\r\n\r\n    //starting auction of a token\r\n\r\n    function startAuction(address _contractAddress, uint256 tokenNumber , uint256 price , uint256 _time)\r\n     external onlyOwner(_contractAddress,tokenNumber){\r\n        \r\n         AuctionDetails storage ad= AuctonableNFT[_contractAddress][tokenNumber];\r\n             require(ad.auction==state.Started,\"already running\");\r\n         ad.owner=payable(msg.sender);\r\n         ad.auction=state.Started;\r\n         ad.startingTime=block.number;\r\n         ad.starting_price= price;\r\n         ad.endingTime=ad.startingTime.add(_time.mul(6545)); // calculating time in terms of block, 1 block takes 13.2 seconds to get mined :24 hrs =6545\r\n\r\n         emit AuctionStarted(msg.sender,tokenNumber,msg.sender,price,_time.mul(6545));\r\n    }\r\n\r\n    // Internal utility min Function\r\n\r\n    function min(uint a, uint b) internal pure returns (uint){\r\n        return a<=b?a:b;\r\n    }\r\n\r\n\r\n\r\n    function enterBid(address _contractAddress , uint256 tokenNumber) external\r\n     payable notOwner(_contractAddress,tokenNumber) returns (bool)\r\n    {\r\n          require(msg.value!=0,\"0 given ! , please provide valid ether's\");\r\n      \r\n        AuctionDetails storage ad= AuctonableNFT[_contractAddress][tokenNumber];\r\n         ad.auction= block.number>=ad.endingTime?state.Ended:ad.auction;\r\n\r\n         require(ad.auction!=state.Ended,\"Auction Ended\");\r\n         require(ad.auction!=state.Cancelled,\"Auction has been canceled\");\r\n\r\n        uint currentBid=ad.bids[msg.sender]+msg.value;\r\n\r\n        uint256 biddingPrice =ad.bids[ad.highestBidder]==0? ad.starting_price:ad.bids[ad.highestBidder]; // here condition was added to include initial price for starting auction .\r\n\r\n        require(currentBid>=biddingPrice,\"bid is less then the selling price\");\r\n\r\n         if(ad.bids[msg.sender]==0){\r\n         ad.auctionParticipant.push(payable (msg.sender));\r\n       }\r\n        ad.bids[msg.sender]=currentBid;\r\n\r\n       if(ad.bids[msg.sender]>=ad.bids[ad.highestBidder])\r\n       {\r\n           \r\n        ad.highestBindingBid= min(ad.bids[msg.sender],biddingPrice+incrementFactor);\r\n        ad.highestBidder=msg.sender;\r\n       }\r\n       else{\r\n           ad.highestBindingBid= min(ad.bids[msg.sender].add(incrementFactor),ad.bids[ad.highestBidder]);\r\n\r\n       }\r\n\r\n\r\n       emit BidMade(_contractAddress,tokenNumber,ad.owner , msg.sender,ad.highestBindingBid,(ad.endingTime.sub(block.number)).mul(13),ad.starting_price);\r\n       return true; \r\n    }\r\n\r\n    // function getAuctionDetails(address _contractAddress , uint256 tokenNumber) internal returns(AuctionDetails storage)\r\n    // {\r\n    //      return AuctonableNFT[_contractAddress][tokenNumber];\r\n        \r\n    // }\r\n\r\n    function cancelAuction(address _contractAddress , uint256 tokenNumber) external \r\n    onlyOwner(_contractAddress,tokenNumber) returns(bool)\r\n    {\r\n       AuctonableNFT[_contractAddress][tokenNumber].auction =state.Cancelled;\r\n\r\n       return finalizeAuction(_contractAddress,tokenNumber);\r\n        //  emit AuctionCanceled ( _contractAddress ,  tokenNumber,  msg.sender );\r\n        // return true;\r\n    }\r\n\r\n    function finalizeAuction(address _contractAddress , uint256 tokenNumber) public \r\n        onlyOwner(_contractAddress,tokenNumber) returns  (bool)\r\n        {  \r\n         AuctionDetails storage ad= AuctonableNFT[_contractAddress][tokenNumber];\r\n         IERC721 nftObj=IERC721(_contractAddress);\r\n        require(ad.auction==state.Cancelled || ad.auction==state.Ended,\"Sorry! auction is still not completed\");\r\n        \r\n        transfer_ether(ad , nftObj, tokenNumber);\r\n\r\n        delete (AuctonableNFT[_contractAddress][tokenNumber]);\r\n        emit AuctionFinalized(_contractAddress, tokenNumber, msg.sender);\r\n\r\n        return true;\r\n\r\n    }\r\n\r\n     function transfer_ether(AuctionDetails storage ad , IERC721 nftObj, uint256 tokenNumer) internal  {\r\n        require(ad.owner==msg.sender,\"only owner can perform this operation\");\r\n\r\n        for(uint i=0;i<ad.auctionParticipant.length;i++){\r\n                if(ad.auctionParticipant[i]==ad.highestBidder && ad.auction==state.Ended){ // Caution!!!: remember to change cancelled to ended\r\n                    \r\n                uint256 remainingAmount =  ad.bids[ad.auctionParticipant[i]].sub(ad.highestBindingBid); // difference bwtween selling price and ether provided by highest bidder\r\n                uint interest = (ad.highestBindingBid*3)/100;\r\n                uint256 sellingPrice= ad.highestBindingBid.sub(interest); // selling price adjusted after taking commision\r\n                commision+= interest;\r\n\r\n\r\n                ad.auctionParticipant[i].transfer(remainingAmount);   // remaining amount to be sent back to the bidder\r\n                ad.owner.transfer(sellingPrice);         // transfering fund to owner\r\n                nftObj.safeTransferFrom(msg.sender,ad.highestBidder,tokenNumer);\r\n                }\r\n                  \r\n                else\r\n                    {\r\n                        ad.auctionParticipant[i].transfer(ad.bids[ad.auctionParticipant[i]]);\r\n                    }\r\n            }  \r\n    }\r\n\r\n\r\n\r\n    function withdraw(address _contractAddress , uint256 tokenNumber) public\r\n     { \r\n          AuctionDetails storage ad= AuctonableNFT[_contractAddress][tokenNumber];\r\n          require(ad.auction==state.Ended || ad.auction==state.Cancelled,\"auction is running\");\r\n          if(ad.bids[msg.sender]>=0)\r\n          {\r\n              payable(msg.sender).transfer(ad.bids[msg.sender]);\r\n          }\r\n\r\n    }\r\n\r\n\r\n    function withdrawCommision() public onlyAdmin {\r\n        require(commision>=0,\"Nothing to widhrawn\");\r\n        admin.transfer(commision);\r\n    }\r\n\r\n    function balance() public view onlyAdmin returns (uint){\r\n        return (address(this).balance);\r\n    }\r\n\r\n\r\n}\r\n",
  "sourcePath": "C:\\Users\\aryan\\blockchain\\NFT_Auction\\contracts\\NFTAuction.sol",
  "compiler": {
    "name": "solc",
    "version": "0.8.14+commit.80d49f37.Emscripten.clang"
  },
  "schemaVersion": "3.4.4",
  "updatedAt": "2022-06-10T10:22:53.338Z",
  "networkType": "ethereum",
  "devdoc": {
    "kind": "dev",
    "methods": {},
    "version": 1
  },
  "userdoc": {
    "kind": "user",
    "methods": {},
    "version": 1
  }
}