{
  "contractName": "NFTAuction",
  "abi": [
    {
      "inputs": [],
      "stateMutability": "nonpayable",
      "type": "constructor"
    },
    {
      "anonymous": false,
      "inputs": [
        {
          "indexed": true,
          "internalType": "address",
          "name": "nftAddress",
          "type": "address"
        },
        {
          "indexed": true,
          "internalType": "uint256",
          "name": "tokenNumber",
          "type": "uint256"
        },
        {
          "indexed": true,
          "internalType": "address",
          "name": "ownerofToken",
          "type": "address"
        }
      ],
      "name": "AuctionFinalized",
      "type": "event"
    },
    {
      "anonymous": false,
      "inputs": [
        {
          "indexed": true,
          "internalType": "address",
          "name": "nftAddress",
          "type": "address"
        },
        {
          "indexed": true,
          "internalType": "uint256",
          "name": "tokenNumber",
          "type": "uint256"
        },
        {
          "indexed": true,
          "internalType": "address",
          "name": "ownerofToken",
          "type": "address"
        },
        {
          "indexed": false,
          "internalType": "uint256",
          "name": "price",
          "type": "uint256"
        },
        {
          "indexed": false,
          "internalType": "uint256",
          "name": "time",
          "type": "uint256"
        },
        {
          "indexed": false,
          "internalType": "uint256",
          "name": "buyOutPrice",
          "type": "uint256"
        }
      ],
      "name": "AuctionStarted",
      "type": "event"
    },
    {
      "anonymous": false,
      "inputs": [
        {
          "indexed": true,
          "internalType": "address",
          "name": "nftAddress",
          "type": "address"
        },
        {
          "indexed": true,
          "internalType": "uint256",
          "name": "tokenNumber",
          "type": "uint256"
        },
        {
          "indexed": true,
          "internalType": "address",
          "name": "ownerofToken",
          "type": "address"
        },
        {
          "indexed": false,
          "internalType": "address",
          "name": "bidder",
          "type": "address"
        },
        {
          "indexed": false,
          "internalType": "uint256",
          "name": "bindingBid",
          "type": "uint256"
        },
        {
          "indexed": false,
          "internalType": "uint256",
          "name": "time",
          "type": "uint256"
        },
        {
          "indexed": false,
          "internalType": "uint256",
          "name": "currentBid",
          "type": "uint256"
        },
        {
          "indexed": false,
          "internalType": "uint256",
          "name": "bid",
          "type": "uint256"
        },
        {
          "indexed": false,
          "internalType": "enum NFTAuction.state",
          "name": "auctionStatus",
          "type": "uint8"
        }
      ],
      "name": "BidMade",
      "type": "event"
    },
    {
      "inputs": [
        {
          "internalType": "address",
          "name": "",
          "type": "address"
        },
        {
          "internalType": "uint256",
          "name": "",
          "type": "uint256"
        }
      ],
      "name": "AuctonableNFT",
      "outputs": [
        {
          "internalType": "address payable",
          "name": "owner",
          "type": "address"
        },
        {
          "internalType": "uint256",
          "name": "highestBindingBid",
          "type": "uint256"
        },
        {
          "internalType": "address",
          "name": "highestBidder",
          "type": "address"
        },
        {
          "internalType": "uint256",
          "name": "startingTime",
          "type": "uint256"
        },
        {
          "internalType": "uint256",
          "name": "starting_price",
          "type": "uint256"
        },
        {
          "internalType": "uint256",
          "name": "buyOut_price",
          "type": "uint256"
        },
        {
          "internalType": "uint256",
          "name": "endingTime",
          "type": "uint256"
        },
        {
          "internalType": "enum NFTAuction.state",
          "name": "auction",
          "type": "uint8"
        }
      ],
      "stateMutability": "view",
      "type": "function",
      "constant": true
    },
    {
      "inputs": [
        {
          "internalType": "address",
          "name": "_contractAddress",
          "type": "address"
        },
        {
          "internalType": "uint256",
          "name": "tokenNumber",
          "type": "uint256"
        },
        {
          "internalType": "uint256",
          "name": "_startingprice",
          "type": "uint256"
        },
        {
          "internalType": "uint256",
          "name": "_time",
          "type": "uint256"
        },
        {
          "internalType": "uint256",
          "name": "buyOutPrice",
          "type": "uint256"
        }
      ],
      "name": "startAuction",
      "outputs": [],
      "stateMutability": "nonpayable",
      "type": "function"
    },
    {
      "inputs": [
        {
          "internalType": "address",
          "name": "_contractAddress",
          "type": "address"
        },
        {
          "internalType": "uint256",
          "name": "tokenNumber",
          "type": "uint256"
        }
      ],
      "name": "enterBid",
      "outputs": [
        {
          "internalType": "bool",
          "name": "",
          "type": "bool"
        }
      ],
      "stateMutability": "payable",
      "type": "function",
      "payable": true
    },
    {
      "inputs": [
        {
          "internalType": "address",
          "name": "_contractAddress",
          "type": "address"
        },
        {
          "internalType": "uint256",
          "name": "tokenNumber",
          "type": "uint256"
        }
      ],
      "name": "cancelAuction",
      "outputs": [
        {
          "internalType": "bool",
          "name": "",
          "type": "bool"
        }
      ],
      "stateMutability": "nonpayable",
      "type": "function"
    },
    {
      "inputs": [
        {
          "internalType": "address",
          "name": "_contractAddress",
          "type": "address"
        },
        {
          "internalType": "uint256",
          "name": "tokenNumber",
          "type": "uint256"
        }
      ],
      "name": "finalizeAuction",
      "outputs": [
        {
          "internalType": "bool",
          "name": "",
          "type": "bool"
        }
      ],
      "stateMutability": "nonpayable",
      "type": "function"
    },
    {
      "inputs": [],
      "name": "withdrawCommision",
      "outputs": [],
      "stateMutability": "nonpayable",
      "type": "function"
    },
    {
      "inputs": [],
      "name": "balance",
      "outputs": [
        {
          "internalType": "uint256",
          "name": "",
          "type": "uint256"
        }
      ],
      "stateMutability": "view",
      "type": "function",
      "constant": true
    }
  ],
  "bytecode": "0x608060405234801561001057600080fd5b50600160008190555033600260006101000a81548173ffffffffffffffffffffffffffffffffffffffff021916908373ffffffffffffffffffffffffffffffffffffffff16021790555067016345785d8a00006001819055506129c8806100786000396000f3fe6080604052600436106100705760003560e01c8063a83900b51161004e578063a83900b514610118578063b69ef8a814610148578063c5471e0c14610173578063d7f9094d146101b757610070565b806368905116146100755780636dd2ac84146100b2578063859b97fe146100db575b600080fd5b34801561008157600080fd5b5061009c60048036038101906100979190611d54565b6101ce565b6040516100a99190611daf565b60405180910390f35b3480156100be57600080fd5b506100d960048036038101906100d49190611dca565b610619565b005b3480156100e757600080fd5b5061010260048036038101906100fd9190611d54565b610965565b60405161010f9190611daf565b60405180910390f35b610132600480360381019061012d9190611d54565b610b7a565b60405161013f9190611daf565b60405180910390f35b34801561015457600080fd5b5061015d61147e565b60405161016a9190611e54565b60405180910390f35b34801561017f57600080fd5b5061019a60048036038101906101959190611d54565b611516565b6040516101ae989796959493929190611f16565b60405180910390f35b3480156101c357600080fd5b506101cc6115b8565b005b600082823373ffffffffffffffffffffffffffffffffffffffff168273ffffffffffffffffffffffffffffffffffffffff16636352211e836040518263ffffffff1660e01b81526004016102229190611e54565b602060405180830381865afa15801561023f573d6000803e3d6000fd5b505050506040513d601f19601f820116820180604052508101906102639190611fa9565b73ffffffffffffffffffffffffffffffffffffffff16146102b9576040517f08c379a00000000000000000000000000000000000000000000000000000000081526004016102b090612059565b60405180910390fd5b84846000600460008473ffffffffffffffffffffffffffffffffffffffff1673ffffffffffffffffffffffffffffffffffffffff16815260200190815260200160002060008381526020019081526020016000206008015411610351576040517f08c379a0000000000000000000000000000000000000000000000000000000008152600401610348906120c5565b60405180910390fd5b600260005403610396576040517f08c379a000000000000000000000000000000000000000000000000000000000815260040161038d90612131565b60405180910390fd5b60026000819055506000600460008973ffffffffffffffffffffffffffffffffffffffff1673ffffffffffffffffffffffffffffffffffffffff16815260200190815260200160002060008881526020019081526020016000209050600088905060038081111561040a57610409611e9f565b5b8260090160009054906101000a900460ff16600381111561042e5761042d611e9f565b5b148061046f57506002600381111561044957610448611e9f565b5b8260090160009054906101000a900460ff16600381111561046d5761046c611e9f565b5b145b6104ae576040517f08c379a00000000000000000000000000000000000000000000000000000000081526004016104a5906121c3565b60405180910390fd5b6104b982828a6116fb565b600460008a73ffffffffffffffffffffffffffffffffffffffff1673ffffffffffffffffffffffffffffffffffffffff1681526020019081526020016000206000898152602001908152602001600020600080820160006101000a81549073ffffffffffffffffffffffffffffffffffffffff021916905560018201600090556002820160006101000a81549073ffffffffffffffffffffffffffffffffffffffff02191690556004820160006105709190611c7d565b60058201600090556006820160009055600782016000905560088201600090556009820160006101000a81549060ff021916905550503373ffffffffffffffffffffffffffffffffffffffff16888a73ffffffffffffffffffffffffffffffffffffffff167fad7f9a73d89f3eff945dd8e19f632c0910152d07a7410889f30ff26be0aa1a0a60405160405180910390a460019650505060016000819055505050505092915050565b84843373ffffffffffffffffffffffffffffffffffffffff168273ffffffffffffffffffffffffffffffffffffffff16636352211e836040518263ffffffff1660e01b815260040161066b9190611e54565b602060405180830381865afa158015610688573d6000803e3d6000fd5b505050506040513d601f19601f820116820180604052508101906106ac9190611fa9565b73ffffffffffffffffffffffffffffffffffffffff1614610702576040517f08c379a00000000000000000000000000000000000000000000000000000000081526004016106f990612059565b60405180910390fd5b86866000600460008473ffffffffffffffffffffffffffffffffffffffff1673ffffffffffffffffffffffffffffffffffffffff1681526020019081526020016000206000838152602001908152602001600020600801541461079a576040517f08c379a00000000000000000000000000000000000000000000000000000000081526004016107919061222f565b60405180910390fd5b600086116107dd576040517f08c379a00000000000000000000000000000000000000000000000000000000081526004016107d49061229b565b60405180910390fd5b6000600460008b73ffffffffffffffffffffffffffffffffffffffff1673ffffffffffffffffffffffffffffffffffffffff16815260200190815260200160002060008a81526020019081526020016000209050338160000160006101000a81548173ffffffffffffffffffffffffffffffffffffffff021916908373ffffffffffffffffffffffffffffffffffffffff16021790555060018160090160006101000a81548160ff0219169083600381111561089c5761089b611e9f565b5b02179055504381600501819055508581600701819055508781600601819055506108e76108d461168089611c2190919063ffffffff16565b8260050154611c3790919063ffffffff16565b81600801819055503373ffffffffffffffffffffffffffffffffffffffff16898b73ffffffffffffffffffffffffffffffffffffffff167f49dcb78f11aac3b63f364127415374455c7f2493651ae8241f95e07b30fc09b98b8b8b604051610951939291906122bb565b60405180910390a450505050505050505050565b600082823373ffffffffffffffffffffffffffffffffffffffff168273ffffffffffffffffffffffffffffffffffffffff16636352211e836040518263ffffffff1660e01b81526004016109b99190611e54565b602060405180830381865afa1580156109d6573d6000803e3d6000fd5b505050506040513d601f19601f820116820180604052508101906109fa9190611fa9565b73ffffffffffffffffffffffffffffffffffffffff1614610a50576040517f08c379a0000000000000000000000000000000000000000000000000000000008152600401610a4790612059565b60405180910390fd5b84846000600460008473ffffffffffffffffffffffffffffffffffffffff1673ffffffffffffffffffffffffffffffffffffffff16815260200190815260200160002060008381526020019081526020016000206008015411610ae8576040517f08c379a0000000000000000000000000000000000000000000000000000000008152600401610adf906120c5565b60405180910390fd5b6003600460008973ffffffffffffffffffffffffffffffffffffffff1673ffffffffffffffffffffffffffffffffffffffff168152602001908152602001600020600088815260200190815260200160002060090160006101000a81548160ff02191690836003811115610b5f57610b5e611e9f565b5b0217905550610b6e87876101ce565b94505050505092915050565b600082823373ffffffffffffffffffffffffffffffffffffffff168273ffffffffffffffffffffffffffffffffffffffff16636352211e836040518263ffffffff1660e01b8152600401610bce9190611e54565b602060405180830381865afa158015610beb573d6000803e3d6000fd5b505050506040513d601f19601f82011682018060405250810190610c0f9190611fa9565b73ffffffffffffffffffffffffffffffffffffffff1603610c65576040517f08c379a0000000000000000000000000000000000000000000000000000000008152600401610c5c90612364565b60405180910390fd5b84846000600460008473ffffffffffffffffffffffffffffffffffffffff1673ffffffffffffffffffffffffffffffffffffffff16815260200190815260200160002060008381526020019081526020016000206008015411610cfd576040517f08c379a0000000000000000000000000000000000000000000000000000000008152600401610cf4906120c5565b60405180910390fd5b60003403610d40576040517f08c379a0000000000000000000000000000000000000000000000000000000008152600401610d37906123f6565b60405180910390fd5b6000600460008973ffffffffffffffffffffffffffffffffffffffff1673ffffffffffffffffffffffffffffffffffffffff168152602001908152602001600020600088815260200190815260200160002090508060080154431015610db7578060090160009054906101000a900460ff16610dba565b60025b8160090160006101000a81548160ff02191690836003811115610de057610ddf611e9f565b5b021790555060026003811115610df957610df8611e9f565b5b8160090160009054906101000a900460ff166003811115610e1d57610e1c611e9f565b5b03610e5d576040517f08c379a0000000000000000000000000000000000000000000000000000000008152600401610e5490612462565b60405180910390fd5b600380811115610e7057610e6f611e9f565b5b8160090160009054906101000a900460ff166003811115610e9457610e93611e9f565b5b03610ed4576040517f08c379a0000000000000000000000000000000000000000000000000000000008152600401610ecb906124ce565b60405180910390fd5b6000348260030160003373ffffffffffffffffffffffffffffffffffffffff1673ffffffffffffffffffffffffffffffffffffffff16815260200190815260200160002054610f23919061251d565b90506000808360030160008560020160009054906101000a900473ffffffffffffffffffffffffffffffffffffffff1673ffffffffffffffffffffffffffffffffffffffff1673ffffffffffffffffffffffffffffffffffffffff1681526020019081526020016000205414610f9d578260010154610fa3565b82600601545b905080821015610fe8576040517f08c379a0000000000000000000000000000000000000000000000000000000008152600401610fdf906125e5565b60405180910390fd5b60008360030160003373ffffffffffffffffffffffffffffffffffffffff1673ffffffffffffffffffffffffffffffffffffffff16815260200190815260200160002054036110975782600401339080600181540180825580915050600190039060005260206000200160009091909190916101000a81548173ffffffffffffffffffffffffffffffffffffffff021916908373ffffffffffffffffffffffffffffffffffffffff1602179055505b818360030160003373ffffffffffffffffffffffffffffffffffffffff1673ffffffffffffffffffffffffffffffffffffffff168152602001908152602001600020819055508260030160008460020160009054906101000a900473ffffffffffffffffffffffffffffffffffffffff1673ffffffffffffffffffffffffffffffffffffffff1673ffffffffffffffffffffffffffffffffffffffff168152602001908152602001600020548360030160003373ffffffffffffffffffffffffffffffffffffffff1673ffffffffffffffffffffffffffffffffffffffff1681526020019081526020016000205410611232576111e28360030160003373ffffffffffffffffffffffffffffffffffffffff1673ffffffffffffffffffffffffffffffffffffffff16815260200190815260200160002054600154836111dd919061251d565b611c4d565b8360010181905550338360020160006101000a81548173ffffffffffffffffffffffffffffffffffffffff021916908373ffffffffffffffffffffffffffffffffffffffff1602179055506112ff565b6112f661128b6001548560030160003373ffffffffffffffffffffffffffffffffffffffff1673ffffffffffffffffffffffffffffffffffffffff16815260200190815260200160002054611c3790919063ffffffff16565b8460030160008660020160009054906101000a900473ffffffffffffffffffffffffffffffffffffffff1673ffffffffffffffffffffffffffffffffffffffff1673ffffffffffffffffffffffffffffffffffffffff16815260200190815260200160002054611c4d565b83600101819055505b6000836007015414158015611318575082600701548210155b1561139b5760028360090160006101000a81548160ff0219169083600381111561134557611344611e9f565b5b021790555082600701548360010181905550338360020160006101000a81548173ffffffffffffffffffffffffffffffffffffffff021916908373ffffffffffffffffffffffffffffffffffffffff1602179055505b8260000160009054906101000a900473ffffffffffffffffffffffffffffffffffffffff1673ffffffffffffffffffffffffffffffffffffffff16898b73ffffffffffffffffffffffffffffffffffffffff167f30c7ad33fe120503effaf847e5ad02280be216c5905e6c36ce9869c0d9c68c1733876001015461143f600d611431438c60080154611c6790919063ffffffff16565b611c2190919063ffffffff16565b88348b60090160009054906101000a900460ff1660405161146596959493929190612605565b60405180910390a4600197505050505050505092915050565b60003373ffffffffffffffffffffffffffffffffffffffff16600260009054906101000a900473ffffffffffffffffffffffffffffffffffffffff1673ffffffffffffffffffffffffffffffffffffffff1614611510576040517f08c379a0000000000000000000000000000000000000000000000000000000008152600401611507906126d8565b60405180910390fd5b47905090565b6004602052816000526040600020602052806000526040600020600091509150508060000160009054906101000a900473ffffffffffffffffffffffffffffffffffffffff16908060010154908060020160009054906101000a900473ffffffffffffffffffffffffffffffffffffffff16908060050154908060060154908060070154908060080154908060090160009054906101000a900460ff16905088565b3373ffffffffffffffffffffffffffffffffffffffff16600260009054906101000a900473ffffffffffffffffffffffffffffffffffffffff1673ffffffffffffffffffffffffffffffffffffffff1614611648576040517f08c379a000000000000000000000000000000000000000000000000000000000815260040161163f906126d8565b60405180910390fd5b6000600354101561168e576040517f08c379a000000000000000000000000000000000000000000000000000000000815260040161168590612744565b60405180910390fd5b600260009054906101000a900473ffffffffffffffffffffffffffffffffffffffff1673ffffffffffffffffffffffffffffffffffffffff166108fc6003549081150290604051600060405180830381858888f193505050501580156116f8573d6000803e3d6000fd5b50565b3373ffffffffffffffffffffffffffffffffffffffff168360000160009054906101000a900473ffffffffffffffffffffffffffffffffffffffff1673ffffffffffffffffffffffffffffffffffffffff161461178d576040517f08c379a0000000000000000000000000000000000000000000000000000000008152600401611784906127d6565b60405180910390fd5b60005b8360040180549050811015611c1b578360020160009054906101000a900473ffffffffffffffffffffffffffffffffffffffff1673ffffffffffffffffffffffffffffffffffffffff168460040182815481106117f0576117ef6127f6565b5b9060005260206000200160009054906101000a900473ffffffffffffffffffffffffffffffffffffffff1673ffffffffffffffffffffffffffffffffffffffff1614801561187357506002600381111561184d5761184c611e9f565b5b8460090160009054906101000a900460ff16600381111561187157611870611e9f565b5b145b15611aff576000611912856001015486600301600088600401868154811061189e5761189d6127f6565b5b9060005260206000200160009054906101000a900473ffffffffffffffffffffffffffffffffffffffff1673ffffffffffffffffffffffffffffffffffffffff1673ffffffffffffffffffffffffffffffffffffffff16815260200190815260200160002054611c6790919063ffffffff16565b905060006064600387600101546119299190612825565b61193391906128ae565b9050600061194e828860010154611c6790919063ffffffff16565b90508160036000828254611962919061251d565b92505081905550600083146119f957866004018481548110611987576119866127f6565b5b9060005260206000200160009054906101000a900473ffffffffffffffffffffffffffffffffffffffff1673ffffffffffffffffffffffffffffffffffffffff166108fc849081150290604051600060405180830381858888f193505050501580156119f7573d6000803e3d6000fd5b505b8660000160009054906101000a900473ffffffffffffffffffffffffffffffffffffffff1673ffffffffffffffffffffffffffffffffffffffff166108fc829081150290604051600060405180830381858888f19350505050158015611a63573d6000803e3d6000fd5b508573ffffffffffffffffffffffffffffffffffffffff166342842e0e338960020160009054906101000a900473ffffffffffffffffffffffffffffffffffffffff16886040518463ffffffff1660e01b8152600401611ac5939291906128df565b600060405180830381600087803b158015611adf57600080fd5b505af1158015611af3573d6000803e3d6000fd5b50505050505050611c08565b836004018181548110611b1557611b146127f6565b5b9060005260206000200160009054906101000a900473ffffffffffffffffffffffffffffffffffffffff1673ffffffffffffffffffffffffffffffffffffffff166108fc856003016000876004018581548110611b7557611b746127f6565b5b9060005260206000200160009054906101000a900473ffffffffffffffffffffffffffffffffffffffff1673ffffffffffffffffffffffffffffffffffffffff1673ffffffffffffffffffffffffffffffffffffffff168152602001908152602001600020549081150290604051600060405180830381858888f19350505050158015611c06573d6000803e3d6000fd5b505b8080611c1390612916565b915050611790565b50505050565b60008183611c2f9190612825565b905092915050565b60008183611c45919061251d565b905092915050565b600081831115611c5d5781611c5f565b825b905092915050565b60008183611c75919061295e565b905092915050565b5080546000825590600052602060002090810190611c9b9190611c9e565b50565b5b80821115611cb7576000816000905550600101611c9f565b5090565b600080fd5b600073ffffffffffffffffffffffffffffffffffffffff82169050919050565b6000611ceb82611cc0565b9050919050565b611cfb81611ce0565b8114611d0657600080fd5b50565b600081359050611d1881611cf2565b92915050565b6000819050919050565b611d3181611d1e565b8114611d3c57600080fd5b50565b600081359050611d4e81611d28565b92915050565b60008060408385031215611d6b57611d6a611cbb565b5b6000611d7985828601611d09565b9250506020611d8a85828601611d3f565b9150509250929050565b60008115159050919050565b611da981611d94565b82525050565b6000602082019050611dc46000830184611da0565b92915050565b600080600080600060a08688031215611de657611de5611cbb565b5b6000611df488828901611d09565b9550506020611e0588828901611d3f565b9450506040611e1688828901611d3f565b9350506060611e2788828901611d3f565b9250506080611e3888828901611d3f565b9150509295509295909350565b611e4e81611d1e565b82525050565b6000602082019050611e696000830184611e45565b92915050565b6000611e7a82611cc0565b9050919050565b611e8a81611e6f565b82525050565b611e9981611ce0565b82525050565b7f4e487b7100000000000000000000000000000000000000000000000000000000600052602160045260246000fd5b60048110611edf57611ede611e9f565b5b50565b6000819050611ef082611ece565b919050565b6000611f0082611ee2565b9050919050565b611f1081611ef5565b82525050565b600061010082019050611f2c600083018b611e81565b611f39602083018a611e45565b611f466040830189611e90565b611f536060830188611e45565b611f606080830187611e45565b611f6d60a0830186611e45565b611f7a60c0830185611e45565b611f8760e0830184611f07565b9998505050505050505050565b600081519050611fa381611cf2565b92915050565b600060208284031215611fbf57611fbe611cbb565b5b6000611fcd84828501611f94565b91505092915050565b600082825260208201905092915050565b7f746f6b656e207265676973746572656420746f20646966666572656e7420616460008201527f6472657373000000000000000000000000000000000000000000000000000000602082015250565b6000612043602583611fd6565b915061204e82611fe7565b604082019050919050565b6000602082019050818103600083015261207281612036565b9050919050565b7f41756374696f6e20446f6573204e6f7420457869737420210000000000000000600082015250565b60006120af601883611fd6565b91506120ba82612079565b602082019050919050565b600060208201905081810360008301526120de816120a2565b9050919050565b7f5265656e7472616e637947756172643a207265656e7472616e742063616c6c00600082015250565b600061211b601f83611fd6565b9150612126826120e5565b602082019050919050565b6000602082019050818103600083015261214a8161210e565b9050919050565b7f2041756374696f6e206973207374696c6c206e6f7420636f6d706c657465642060008201527f2121000000000000000000000000000000000000000000000000000000000000602082015250565b60006121ad602283611fd6565b91506121b882612151565b604082019050919050565b600060208201905081810360008301526121dc816121a0565b9050919050565b7f41756374696f6e20416c72656164792045786973742021000000000000000000600082015250565b6000612219601783611fd6565b9150612224826121e3565b602082019050919050565b600060208201905081810360008301526122488161220c565b9050919050565b7f54696d65206973206c657373207468616e203000000000000000000000000000600082015250565b6000612285601383611fd6565b91506122908261224f565b602082019050919050565b600060208201905081810360008301526122b481612278565b9050919050565b60006060820190506122d06000830186611e45565b6122dd6020830185611e45565b6122ea6040830184611e45565b949350505050565b7f4f776e6572206f6620746f6b656e2063616e206e6f742070617274696369706160008201527f7465000000000000000000000000000000000000000000000000000000000000602082015250565b600061234e602283611fd6565b9150612359826122f2565b604082019050919050565b6000602082019050818103600083015261237d81612341565b9050919050565b7f3020676976656e2021202c20706c656173652070726f766964652076616c696460008201527f2065746865722773000000000000000000000000000000000000000000000000602082015250565b60006123e0602883611fd6565b91506123eb82612384565b604082019050919050565b6000602082019050818103600083015261240f816123d3565b9050919050565b7f41756374696f6e20456e64656400000000000000000000000000000000000000600082015250565b600061244c600d83611fd6565b915061245782612416565b602082019050919050565b6000602082019050818103600083015261247b8161243f565b9050919050565b7f41756374696f6e20686173206265656e2063616e63656c656400000000000000600082015250565b60006124b8601983611fd6565b91506124c382612482565b602082019050919050565b600060208201905081810360008301526124e7816124ab565b9050919050565b7f4e487b7100000000000000000000000000000000000000000000000000000000600052601160045260246000fd5b600061252882611d1e565b915061253383611d1e565b9250827fffffffffffffffffffffffffffffffffffffffffffffffffffffffffffffffff03821115612568576125676124ee565b5b828201905092915050565b7f626964206973206c657373207468656e207468652073656c6c696e672070726960008201527f6365000000000000000000000000000000000000000000000000000000000000602082015250565b60006125cf602283611fd6565b91506125da82612573565b604082019050919050565b600060208201905081810360008301526125fe816125c2565b9050919050565b600060c08201905061261a6000830189611e90565b6126276020830188611e45565b6126346040830187611e45565b6126416060830186611e45565b61264e6080830185611e45565b61265b60a0830184611f07565b979650505050505050565b7f6f6e6c792061646d696e2063616e206163636573732074686973206d6574686f60008201527f6400000000000000000000000000000000000000000000000000000000000000602082015250565b60006126c2602183611fd6565b91506126cd82612666565b604082019050919050565b600060208201905081810360008301526126f1816126b5565b9050919050565b7f4e6f7468696e6720746f20776964687261776e00000000000000000000000000600082015250565b600061272e601383611fd6565b9150612739826126f8565b602082019050919050565b6000602082019050818103600083015261275d81612721565b9050919050565b7f6f6e6c79206f776e65722063616e20706572666f726d2074686973206f70657260008201527f6174696f6e000000000000000000000000000000000000000000000000000000602082015250565b60006127c0602583611fd6565b91506127cb82612764565b604082019050919050565b600060208201905081810360008301526127ef816127b3565b9050919050565b7f4e487b7100000000000000000000000000000000000000000000000000000000600052603260045260246000fd5b600061283082611d1e565b915061283b83611d1e565b9250817fffffffffffffffffffffffffffffffffffffffffffffffffffffffffffffffff0483118215151615612874576128736124ee565b5b828202905092915050565b7f4e487b7100000000000000000000000000000000000000000000000000000000600052601260045260246000fd5b60006128b982611d1e565b91506128c483611d1e565b9250826128d4576128d361287f565b5b828204905092915050565b60006060820190506128f46000830186611e90565b6129016020830185611e90565b61290e6040830184611e45565b949350505050565b600061292182611d1e565b91507fffffffffffffffffffffffffffffffffffffffffffffffffffffffffffffffff8203612953576129526124ee565b5b600182019050919050565b600061296982611d1e565b915061297483611d1e565b925082821015612987576129866124ee565b5b82820390509291505056fea2646970667358221220ee03a107f182085e634508f0a398c8156326422518ce922f58ebb83e018d111064736f6c634300080f0033",
  "immutableReferences": {},
  "source": "// SPDX-License-Identifier: MIT\r\npragma solidity ^0.8.0;\r\n\r\nimport \"@openzeppelin/contracts/token/ERC721/IERC721.sol\";\r\nimport \"@openzeppelin/contracts/utils/math/SafeMath.sol\";\r\nimport \"@openzeppelin/contracts/security/ReentrancyGuard.sol\";\r\n\r\n\r\ncontract NFTAuction is ReentrancyGuard {\r\n\r\n\r\n    uint256 incrementFactor; // increment factor to be added\r\n    address payable admin; // admin can retrieve commision fund\r\n    uint256 private commision; // commision of 3% to be collected on each auction\r\n     enum state {Idle,Running,Ended,Cancelled}  \r\n    using SafeMath for uint256;\r\n\r\n    struct  AuctionDetails {\r\n        address payable  owner ;   // owner of a nft\r\n        uint256   highestBindingBid; // selling price of artifact\r\n        address  highestBidder;   // address of highest bidder at a point in time        \r\n        mapping(address => uint)  bids;   // mapping containing bid for each participant\r\n        address payable []  auctionParticipant; // array for traversing through addresss\r\n        uint256 startingTime;  \r\n        uint256 starting_price;\r\n        uint256 buyOut_price;  \r\n        uint endingTime;\r\n        state  auction;\r\n    }\r\n\r\n\r\n    mapping(address=>mapping(uint256=>AuctionDetails)) public AuctonableNFT;   // auctioning of a token of a specific NFT\r\n\r\n     constructor() {\r\n        admin= payable(msg.sender);\r\n        incrementFactor= 0.1 ether;\r\n    }\r\n\r\n\r\n    modifier onlyOwner(address _contractAddress, uint256 tokenNumber){\r\n        require(IERC721(_contractAddress).ownerOf(tokenNumber)==msg.sender,\"token registered to different address\");\r\n        _;\r\n    }\r\n\r\n     modifier notOwner(address _contractAddress, uint256 tokenNumber){\r\n        require(IERC721(_contractAddress).ownerOf(tokenNumber)!=msg.sender,\"Owner of token can not participate\");\r\n        _;\r\n    }\r\n\r\n    modifier onlyAdmin{\r\n        require(admin==msg.sender,\"only admin can access this method\");\r\n        _;\r\n    }\r\n\r\n     modifier AuctionDoesNotExist(address _contractAddress, uint256 tokenNumber){\r\n        require(AuctonableNFT[_contractAddress][tokenNumber].endingTime==0,\"Auction Already Exist !\");\r\n        _;\r\n    }\r\n\r\n    modifier AuctionExist(address _contractAddress, uint256 tokenNumber){\r\n        require(AuctonableNFT[_contractAddress][tokenNumber].endingTime>0,\"Auction Does Not Exist !\");\r\n        _;\r\n    }\r\n\r\n\r\n    event AuctionStarted(address indexed nftAddress, uint256 indexed tokenNumber , address indexed ownerofToken,  uint256 price, uint256 time , uint256 buyOutPrice); \r\n    event BidMade(address indexed nftAddress, uint256 indexed tokenNumber ,address indexed ownerofToken ,address bidder, uint256 bindingBid, uint256 time, uint256 currentBid,uint256 bid,state auctionStatus);\r\n    event AuctionFinalized (address indexed nftAddress, uint256 indexed tokenNumber , address indexed ownerofToken );\r\n\r\n\r\n    //starting auction of a token\r\n\r\n    function startAuction(address _contractAddress, uint256 tokenNumber , uint256 _startingprice , uint256 _time, uint256 buyOutPrice)\r\n     external onlyOwner(_contractAddress,tokenNumber)  AuctionDoesNotExist( _contractAddress, tokenNumber)\r\n     \r\n     {    require(_time>0,\"Time is less than 0\");\r\n         AuctionDetails storage ad= AuctonableNFT[_contractAddress][tokenNumber];\r\n\r\n         ad.owner=payable(msg.sender);\r\n         ad.auction=state.Running;\r\n         ad.startingTime=block.number;\r\n         ad.buyOut_price = buyOutPrice;\r\n         ad.starting_price= _startingprice;\r\n         ad.endingTime=ad.startingTime.add(_time.mul(5760)); // calculating time in terms of block, 1 block takes an average of 15 seconds to get mined :24 hrs =5760\r\n\r\n         emit AuctionStarted(_contractAddress,tokenNumber,msg.sender,_startingprice,_time,buyOutPrice);\r\n    }\r\n\r\n    // Internal utility min Function\r\n\r\n    function min(uint a, uint b) internal pure returns (uint){\r\n        return a<=b?a:b;\r\n    }\r\n\r\n\r\n\r\n    function enterBid(address _contractAddress , uint256 tokenNumber) external\r\n     payable notOwner(_contractAddress,tokenNumber) AuctionExist( _contractAddress, tokenNumber) returns (bool)\r\n    {\r\n          require(msg.value!=0,\"0 given ! , please provide valid ether's\");\r\n      \r\n        AuctionDetails storage ad= AuctonableNFT[_contractAddress][tokenNumber];\r\n         ad.auction= block.number>=ad.endingTime?state.Ended:ad.auction;  // to be checked on starting if validity has expired\r\n         \r\n         require(ad.auction!=state.Ended,\"Auction Ended\");\r\n         require(ad.auction!=state.Cancelled,\"Auction has been canceled\");\r\n\r\n\r\n        uint currentBid=ad.bids[msg.sender]+msg.value;\r\n\r\n        uint256 biddingPrice =ad.bids[ad.highestBidder]==0? ad.starting_price:ad.highestBindingBid; // here condition was added to include initial price for starting auction .\r\n\r\n        require(currentBid>=biddingPrice,\"bid is less then the selling price\");\r\n\r\n         if(ad.bids[msg.sender]==0){\r\n         ad.auctionParticipant.push(payable (msg.sender));\r\n       }\r\n        ad.bids[msg.sender]=currentBid;\r\n\r\n\r\n       if(ad.bids[msg.sender]>=ad.bids[ad.highestBidder])\r\n       {    \r\n        ad.highestBindingBid= min(ad.bids[msg.sender],biddingPrice+incrementFactor);\r\n        ad.highestBidder=msg.sender;\r\n       }\r\n\r\n       else{\r\n           ad.highestBindingBid= min(ad.bids[msg.sender].add(incrementFactor),ad.bids[ad.highestBidder]);\r\n       }\r\n\r\n       if(ad.buyOut_price!=0 && currentBid>=ad.buyOut_price)\r\n            {\r\n                ad.auction = state.Ended;\r\n                ad.highestBindingBid= ad.buyOut_price;\r\n                ad.highestBidder=msg.sender;\r\n            }\r\n\r\n\r\n       emit BidMade(_contractAddress,tokenNumber,ad.owner , msg.sender,ad.highestBindingBid,(ad.endingTime.sub(block.number)).mul(13),currentBid ,msg.value ,ad.auction);\r\n       return true; \r\n    }\r\n\r\n\r\n    function cancelAuction(address _contractAddress , uint256 tokenNumber) external \r\n    onlyOwner(_contractAddress,tokenNumber) AuctionExist( _contractAddress ,  tokenNumber) returns(bool)\r\n    {\r\n       AuctonableNFT[_contractAddress][tokenNumber].auction =state.Cancelled;\r\n\r\n       return finalizeAuction(_contractAddress,tokenNumber);\r\n\r\n    }\r\n\r\n    function finalizeAuction(address _contractAddress , uint256 tokenNumber) public \r\n        onlyOwner(_contractAddress,tokenNumber) AuctionExist( _contractAddress ,  tokenNumber)\r\n         nonReentrant returns(bool)\r\n        {  \r\n         AuctionDetails storage ad= AuctonableNFT[_contractAddress][tokenNumber];\r\n         IERC721 nftObj=IERC721(_contractAddress);\r\n        require(ad.auction==state.Cancelled || ad.auction==state.Ended,\" Auction is still not completed !!\");\r\n        \r\n        transfer_ether(ad , nftObj, tokenNumber);\r\n\r\n        delete (AuctonableNFT[_contractAddress][tokenNumber]);\r\n        emit AuctionFinalized(_contractAddress, tokenNumber, msg.sender);\r\n\r\n        return true;\r\n\r\n    }\r\n\r\n     function transfer_ether(AuctionDetails storage ad , IERC721 nftObj, uint256 tokenNumer) internal  {\r\n        require(ad.owner==msg.sender,\"only owner can perform this operation\");\r\n\r\n        for(uint i=0;i<ad.auctionParticipant.length;i++){\r\n                if(ad.auctionParticipant[i]==ad.highestBidder && ad.auction==state.Ended){ // Caution!!!: remember to change cancelled to ended\r\n                    \r\n                uint256 remainingAmount =  ad.bids[ad.auctionParticipant[i]].sub(ad.highestBindingBid); // difference bwtween selling price and ether provided by highest bidder\r\n                uint interest = (ad.highestBindingBid*3)/100;\r\n                uint256 sellingPrice= ad.highestBindingBid.sub(interest); // selling price adjusted after taking commision\r\n                commision+= interest;                // adding interest of each auction in commision\r\n\r\n                if(remainingAmount!=0)\r\n                {\r\n                ad.auctionParticipant[i].transfer(remainingAmount); // remaining amount to be sent back to the bidder\r\n                }\r\n                 \r\n                ad.owner.transfer(sellingPrice);         // transfering fund to owner\r\n                nftObj.safeTransferFrom(msg.sender,ad.highestBidder,tokenNumer);\r\n                }\r\n                  \r\n                else\r\n                    {\r\n                        ad.auctionParticipant[i].transfer(ad.bids[ad.auctionParticipant[i]]);\r\n                    }\r\n            }  \r\n    }\r\n\r\n\r\n\r\n    // function withdraw(address _contractAddress , uint256 tokenNumber) public\r\n    //  { \r\n    //       AuctionDetails storage ad= AuctonableNFT[_contractAddress][tokenNumber];\r\n    //       require(ad.auction==state.Ended || ad.auction==state.Cancelled,\"auction is running\");\r\n    //       if(ad.bids[msg.sender]>=0)\r\n    //       {\r\n    //           payable(msg.sender).transfer(ad.bids[msg.sender]);\r\n    //       }\r\n\r\n    // }\r\n\r\n\r\n    function withdrawCommision() public onlyAdmin {\r\n        require(commision>=0,\"Nothing to widhrawn\");\r\n        admin.transfer(commision);\r\n    }\r\n\r\n    function balance() public view onlyAdmin returns (uint){\r\n        return (address(this).balance);\r\n    }\r\n\r\n\r\n}\r\n",
  "sourcePath": "C:\\Users\\aryan\\blockchain\\NFT_Auction\\contracts\\NFTAuction.sol",
  "compiler": {
    "name": "solc",
    "version": "0.8.15+commit.e14f2714.Emscripten.clang"
  },
  "schemaVersion": "3.4.4",
  "updatedAt": "2022-06-22T18:28:38.273Z",
  "networkType": "ethereum",
  "devdoc": {
    "kind": "dev",
    "methods": {},
    "version": 1
  },
  "userdoc": {
    "kind": "user",
    "methods": {},
    "version": 1
  }
}